{
  "_format": "hh-sol-artifact-1",
  "contractName": "CredentialNFT",
  "sourceName": "contracts/CredentialNFT.sol",
  "abi": [
    {
      "inputs": [],
      "stateMutability": "nonpayable",
      "type": "constructor"
    },
    {
      "inputs": [
        {
          "internalType": "address",
          "name": "sender",
          "type": "address"
        },
        {
          "internalType": "uint256",
          "name": "tokenId",
          "type": "uint256"
        },
        {
          "internalType": "address",
          "name": "owner",
          "type": "address"
        }
      ],
      "name": "ERC721IncorrectOwner",
      "type": "error"
    },
    {
      "inputs": [
        {
          "internalType": "address",
          "name": "operator",
          "type": "address"
        },
        {
          "internalType": "uint256",
          "name": "tokenId",
          "type": "uint256"
        }
      ],
      "name": "ERC721InsufficientApproval",
      "type": "error"
    },
    {
      "inputs": [
        {
          "internalType": "address",
          "name": "approver",
          "type": "address"
        }
      ],
      "name": "ERC721InvalidApprover",
      "type": "error"
    },
    {
      "inputs": [
        {
          "internalType": "address",
          "name": "operator",
          "type": "address"
        }
      ],
      "name": "ERC721InvalidOperator",
      "type": "error"
    },
    {
      "inputs": [
        {
          "internalType": "address",
          "name": "owner",
          "type": "address"
        }
      ],
      "name": "ERC721InvalidOwner",
      "type": "error"
    },
    {
      "inputs": [
        {
          "internalType": "address",
          "name": "receiver",
          "type": "address"
        }
      ],
      "name": "ERC721InvalidReceiver",
      "type": "error"
    },
    {
      "inputs": [
        {
          "internalType": "address",
          "name": "sender",
          "type": "address"
        }
      ],
      "name": "ERC721InvalidSender",
      "type": "error"
    },
    {
      "inputs": [
        {
          "internalType": "uint256",
          "name": "tokenId",
          "type": "uint256"
        }
      ],
      "name": "ERC721NonexistentToken",
      "type": "error"
    },
    {
      "inputs": [
        {
          "internalType": "address",
          "name": "owner",
          "type": "address"
        }
      ],
      "name": "OwnableInvalidOwner",
      "type": "error"
    },
    {
      "inputs": [
        {
          "internalType": "address",
          "name": "account",
          "type": "address"
        }
      ],
      "name": "OwnableUnauthorizedAccount",
      "type": "error"
    },
    {
      "anonymous": false,
      "inputs": [
        {
          "indexed": true,
          "internalType": "address",
          "name": "owner",
          "type": "address"
        },
        {
          "indexed": true,
          "internalType": "address",
          "name": "approved",
          "type": "address"
        },
        {
          "indexed": true,
          "internalType": "uint256",
          "name": "tokenId",
          "type": "uint256"
        }
      ],
      "name": "Approval",
      "type": "event"
    },
    {
      "anonymous": false,
      "inputs": [
        {
          "indexed": true,
          "internalType": "address",
          "name": "owner",
          "type": "address"
        },
        {
          "indexed": true,
          "internalType": "address",
          "name": "operator",
          "type": "address"
        },
        {
          "indexed": false,
          "internalType": "bool",
          "name": "approved",
          "type": "bool"
        }
      ],
      "name": "ApprovalForAll",
      "type": "event"
    },
    {
      "anonymous": false,
      "inputs": [
        {
          "indexed": true,
          "internalType": "address",
          "name": "to",
          "type": "address"
        },
        {
          "indexed": true,
          "internalType": "uint256",
          "name": "tokenId",
          "type": "uint256"
        },
        {
          "indexed": false,
          "internalType": "enum CredentialNFT.CredentialType",
          "name": "credType",
          "type": "uint8"
        },
        {
          "indexed": false,
          "internalType": "uint256",
          "name": "expiresAt",
          "type": "uint256"
        }
      ],
      "name": "CredentialIssued",
      "type": "event"
    },
    {
      "anonymous": false,
      "inputs": [
        {
          "indexed": true,
          "internalType": "uint256",
          "name": "tokenId",
          "type": "uint256"
        }
      ],
      "name": "CredentialRevoked",
      "type": "event"
    },
    {
      "anonymous": false,
      "inputs": [
        {
          "indexed": true,
          "internalType": "address",
          "name": "issuer",
          "type": "address"
        }
      ],
      "name": "IssuerAuthorized",
      "type": "event"
    },
    {
      "anonymous": false,
      "inputs": [
        {
          "indexed": true,
          "internalType": "address",
          "name": "issuer",
          "type": "address"
        }
      ],
      "name": "IssuerRevoked",
      "type": "event"
    },
    {
      "anonymous": false,
      "inputs": [
        {
          "indexed": true,
          "internalType": "address",
          "name": "previousOwner",
          "type": "address"
        },
        {
          "indexed": true,
          "internalType": "address",
          "name": "newOwner",
          "type": "address"
        }
      ],
      "name": "OwnershipTransferred",
      "type": "event"
    },
    {
      "anonymous": false,
      "inputs": [
        {
          "indexed": true,
          "internalType": "address",
          "name": "from",
          "type": "address"
        },
        {
          "indexed": true,
          "internalType": "address",
          "name": "to",
          "type": "address"
        },
        {
          "indexed": true,
          "internalType": "uint256",
          "name": "tokenId",
          "type": "uint256"
        }
      ],
      "name": "Transfer",
      "type": "event"
    },
    {
      "inputs": [
        {
          "internalType": "address",
          "name": "",
          "type": "address"
        },
        {
          "internalType": "uint256",
          "name": "",
          "type": "uint256"
        }
      ],
      "name": "approve",
      "outputs": [],
      "stateMutability": "nonpayable",
      "type": "function"
    },
    {
      "inputs": [
        {
          "internalType": "address",
          "name": "issuer",
          "type": "address"
        }
      ],
      "name": "authorizeIssuer",
      "outputs": [],
      "stateMutability": "nonpayable",
      "type": "function"
    },
    {
      "inputs": [
        {
          "internalType": "address",
          "name": "",
          "type": "address"
        }
      ],
      "name": "authorizedIssuers",
      "outputs": [
        {
          "internalType": "bool",
          "name": "",
          "type": "bool"
        }
      ],
      "stateMutability": "view",
      "type": "function"
    },
    {
      "inputs": [
        {
          "internalType": "address",
          "name": "owner",
          "type": "address"
        }
      ],
      "name": "balanceOf",
      "outputs": [
        {
          "internalType": "uint256",
          "name": "",
          "type": "uint256"
        }
      ],
      "stateMutability": "view",
      "type": "function"
    },
    {
      "inputs": [
        {
          "internalType": "address[]",
          "name": "recipients",
          "type": "address[]"
        },
        {
          "internalType": "enum CredentialNFT.CredentialType",
          "name": "credType",
          "type": "uint8"
        },
        {
          "internalType": "uint256",
          "name": "validityDays",
          "type": "uint256"
        },
        {
          "internalType": "string",
          "name": "metadata",
          "type": "string"
        }
      ],
      "name": "batchIssueCredentials",
      "outputs": [],
      "stateMutability": "nonpayable",
      "type": "function"
    },
    {
      "inputs": [
        {
          "internalType": "uint256",
          "name": "",
          "type": "uint256"
        }
      ],
      "name": "credentials",
      "outputs": [
        {
          "internalType": "enum CredentialNFT.CredentialType",
          "name": "credType",
          "type": "uint8"
        },
        {
          "internalType": "uint256",
          "name": "issuedAt",
          "type": "uint256"
        },
        {
          "internalType": "uint256",
          "name": "expiresAt",
          "type": "uint256"
        },
        {
          "internalType": "bool",
          "name": "isRevoked",
          "type": "bool"
        },
        {
          "internalType": "string",
          "name": "metadata",
          "type": "string"
        }
      ],
      "stateMutability": "view",
      "type": "function"
    },
    {
      "inputs": [
        {
          "internalType": "uint256",
          "name": "tokenId",
          "type": "uint256"
        }
      ],
      "name": "getApproved",
      "outputs": [
        {
          "internalType": "address",
          "name": "",
          "type": "address"
        }
      ],
      "stateMutability": "view",
      "type": "function"
    },
    {
      "inputs": [
        {
          "internalType": "uint256",
          "name": "tokenId",
          "type": "uint256"
        }
      ],
      "name": "getCredentialDetails",
      "outputs": [
        {
          "internalType": "enum CredentialNFT.CredentialType",
          "name": "credType",
          "type": "uint8"
        },
        {
          "internalType": "uint256",
          "name": "issuedAt",
          "type": "uint256"
        },
        {
          "internalType": "uint256",
          "name": "expiresAt",
          "type": "uint256"
        },
        {
          "internalType": "bool",
          "name": "isRevoked",
          "type": "bool"
        },
        {
          "internalType": "string",
          "name": "metadata",
          "type": "string"
        },
        {
          "internalType": "bool",
          "name": "isValid",
          "type": "bool"
        }
      ],
      "stateMutability": "view",
      "type": "function"
    },
    {
      "inputs": [
        {
          "internalType": "enum CredentialNFT.CredentialType",
          "name": "credType",
          "type": "uint8"
        }
      ],
      "name": "getCredentialTypeName",
      "outputs": [
        {
          "internalType": "string",
          "name": "",
          "type": "string"
        }
      ],
      "stateMutability": "pure",
      "type": "function"
    },
    {
      "inputs": [
        {
          "internalType": "address",
          "name": "user",
          "type": "address"
        },
        {
          "internalType": "enum CredentialNFT.CredentialType",
          "name": "credType",
          "type": "uint8"
        }
      ],
      "name": "getUserCredential",
      "outputs": [
        {
          "internalType": "uint256",
          "name": "",
          "type": "uint256"
        }
      ],
      "stateMutability": "view",
      "type": "function"
    },
    {
      "inputs": [
        {
          "internalType": "address",
          "name": "user",
          "type": "address"
        },
        {
          "internalType": "enum CredentialNFT.CredentialType",
          "name": "credType",
          "type": "uint8"
        }
      ],
      "name": "hasValidCredential",
      "outputs": [
        {
          "internalType": "bool",
          "name": "",
          "type": "bool"
        }
      ],
      "stateMutability": "view",
      "type": "function"
    },
    {
      "inputs": [
        {
          "internalType": "address",
          "name": "owner",
          "type": "address"
        },
        {
          "internalType": "address",
          "name": "operator",
          "type": "address"
        }
      ],
      "name": "isApprovedForAll",
      "outputs": [
        {
          "internalType": "bool",
          "name": "",
          "type": "bool"
        }
      ],
      "stateMutability": "view",
      "type": "function"
    },
    {
      "inputs": [
        {
          "internalType": "uint256",
          "name": "tokenId",
          "type": "uint256"
        }
      ],
      "name": "isCredentialValid",
      "outputs": [
        {
          "internalType": "bool",
          "name": "",
          "type": "bool"
        }
      ],
      "stateMutability": "view",
      "type": "function"
    },
    {
      "inputs": [
        {
          "internalType": "address",
          "name": "to",
          "type": "address"
        },
        {
          "internalType": "enum CredentialNFT.CredentialType",
          "name": "credType",
          "type": "uint8"
        },
        {
          "internalType": "uint256",
          "name": "validityDays",
          "type": "uint256"
        },
        {
          "internalType": "string",
          "name": "metadata",
          "type": "string"
        }
      ],
      "name": "issueCredential",
      "outputs": [
        {
          "internalType": "uint256",
          "name": "",
          "type": "uint256"
        }
      ],
      "stateMutability": "nonpayable",
      "type": "function"
    },
    {
      "inputs": [],
      "name": "name",
      "outputs": [
        {
          "internalType": "string",
          "name": "",
          "type": "string"
        }
      ],
      "stateMutability": "view",
      "type": "function"
    },
    {
      "inputs": [],
      "name": "nextTokenId",
      "outputs": [
        {
          "internalType": "uint256",
          "name": "",
          "type": "uint256"
        }
      ],
      "stateMutability": "view",
      "type": "function"
    },
    {
      "inputs": [],
      "name": "owner",
      "outputs": [
        {
          "internalType": "address",
          "name": "",
          "type": "address"
        }
      ],
      "stateMutability": "view",
      "type": "function"
    },
    {
      "inputs": [
        {
          "internalType": "uint256",
          "name": "tokenId",
          "type": "uint256"
        }
      ],
      "name": "ownerOf",
      "outputs": [
        {
          "internalType": "address",
          "name": "",
          "type": "address"
        }
      ],
      "stateMutability": "view",
      "type": "function"
    },
    {
      "inputs": [],
      "name": "renounceOwnership",
      "outputs": [],
      "stateMutability": "nonpayable",
      "type": "function"
    },
    {
      "inputs": [
        {
          "internalType": "uint256",
          "name": "tokenId",
          "type": "uint256"
        }
      ],
      "name": "revokeCredential",
      "outputs": [],
      "stateMutability": "nonpayable",
      "type": "function"
    },
    {
      "inputs": [
        {
          "internalType": "address",
          "name": "issuer",
          "type": "address"
        }
      ],
      "name": "revokeIssuer",
      "outputs": [],
      "stateMutability": "nonpayable",
      "type": "function"
    },
    {
      "inputs": [
        {
          "internalType": "address",
          "name": "from",
          "type": "address"
        },
        {
          "internalType": "address",
          "name": "to",
          "type": "address"
        },
        {
          "internalType": "uint256",
          "name": "tokenId",
          "type": "uint256"
        }
      ],
      "name": "safeTransferFrom",
      "outputs": [],
      "stateMutability": "nonpayable",
      "type": "function"
    },
    {
      "inputs": [
        {
          "internalType": "address",
          "name": "from",
          "type": "address"
        },
        {
          "internalType": "address",
          "name": "to",
          "type": "address"
        },
        {
          "internalType": "uint256",
          "name": "tokenId",
          "type": "uint256"
        },
        {
          "internalType": "bytes",
          "name": "data",
          "type": "bytes"
        }
      ],
      "name": "safeTransferFrom",
      "outputs": [],
      "stateMutability": "nonpayable",
      "type": "function"
    },
    {
      "inputs": [
        {
          "internalType": "address",
          "name": "",
          "type": "address"
        },
        {
          "internalType": "bool",
          "name": "",
          "type": "bool"
        }
      ],
      "name": "setApprovalForAll",
      "outputs": [],
      "stateMutability": "nonpayable",
      "type": "function"
    },
    {
      "inputs": [
        {
          "internalType": "bytes4",
          "name": "interfaceId",
          "type": "bytes4"
        }
      ],
      "name": "supportsInterface",
      "outputs": [
        {
          "internalType": "bool",
          "name": "",
          "type": "bool"
        }
      ],
      "stateMutability": "view",
      "type": "function"
    },
    {
      "inputs": [],
      "name": "symbol",
      "outputs": [
        {
          "internalType": "string",
          "name": "",
          "type": "string"
        }
      ],
      "stateMutability": "view",
      "type": "function"
    },
    {
      "inputs": [
        {
          "internalType": "uint256",
          "name": "tokenId",
          "type": "uint256"
        }
      ],
      "name": "tokenURI",
      "outputs": [
        {
          "internalType": "string",
          "name": "",
          "type": "string"
        }
      ],
      "stateMutability": "view",
      "type": "function"
    },
    {
      "inputs": [
        {
          "internalType": "address",
          "name": "from",
          "type": "address"
        },
        {
          "internalType": "address",
          "name": "to",
          "type": "address"
        },
        {
          "internalType": "uint256",
          "name": "tokenId",
          "type": "uint256"
        }
      ],
      "name": "transferFrom",
      "outputs": [],
      "stateMutability": "nonpayable",
      "type": "function"
    },
    {
      "inputs": [
        {
          "internalType": "address",
          "name": "newOwner",
          "type": "address"
        }
      ],
      "name": "transferOwnership",
      "outputs": [],
      "stateMutability": "nonpayable",
      "type": "function"
    },
    {
      "inputs": [
        {
          "internalType": "uint256",
          "name": "tokenId",
          "type": "uint256"
        },
        {
          "internalType": "string",
          "name": "newMetadata",
          "type": "string"
        }
      ],
      "name": "updateMetadata",
      "outputs": [],
      "stateMutability": "nonpayable",
      "type": "function"
    },
    {
      "inputs": [
        {
          "internalType": "address",
          "name": "",
          "type": "address"
        },
        {
          "internalType": "enum CredentialNFT.CredentialType",
          "name": "",
          "type": "uint8"
        }
      ],
      "name": "userCredentials",
      "outputs": [
        {
          "internalType": "uint256",
          "name": "",
          "type": "uint256"
        }
      ],
      "stateMutability": "view",
      "type": "function"
    }
  ],
  "bytecode": "0x608060405234801562000010575f80fd5b50336040518060400160405280601381526020017f50726976795265702043726564656e7469616c000000000000000000000000008152506040518060400160405280600a81526020016914149255964b50d4915160b21b815250815f90816200007b9190620001db565b5060016200008a8282620001db565b5050506001600160a01b038116620000bb57604051631e4fbdf760e01b81525f600482015260240160405180910390fd5b620000c681620000ec565b50335f908152600a60205260409020805460ff19166001908117909155600955620002a7565b600680546001600160a01b038381166001600160a01b0319831681179093556040519116919082907f8be0079c531659141344cd1fd0a4f28419497f9722a3daafe3b4186f6b6457e0905f90a35050565b634e487b7160e01b5f52604160045260245ffd5b600181811c908216806200016657607f821691505b6020821081036200018557634e487b7160e01b5f52602260045260245ffd5b50919050565b601f821115620001d657805f5260205f20601f840160051c81016020851015620001b25750805b601f840160051c820191505b81811015620001d3575f8155600101620001be565b50505b505050565b81516001600160401b03811115620001f757620001f76200013d565b6200020f8162000208845462000151565b846200018b565b602080601f83116001811462000245575f84156200022d5750858301515b5f19600386901b1c1916600185901b1785556200029f565b5f85815260208120601f198616915b82811015620002755788860151825594840194600190910190840162000254565b50858210156200029357878501515f19600388901b60f8161c191681555b505060018460011b0185555b505050505050565b6122d780620002b55f395ff3fe608060405234801561000f575f80fd5b50600436106101db575f3560e01c8063668c584a11610109578063a22cb4651161009e578063e0574e3f1161006e578063e0574e3f14610421578063e985e9c514610445578063f2fde38b14610458578063f731fa0f1461046b575f80fd5b8063a22cb465146103da578063b09f146a146103e8578063b88d4fde146103fb578063c87b56dd1461040e575f80fd5b806375794a3c116100d957806375794a3c146103a5578063760802f7146103ae5780638da5cb5b146103c157806395d89b41146103d2575f80fd5b8063668c584a146103645780636da48b9a1461037757806370a082311461038a578063715018a61461039d575f80fd5b80630e0861a61161017f57806342842e0e1161014f57806342842e0e14610318578063436693d51461032b57806353c8388e1461033e5780636352211e14610351575f80fd5b80630e0861a6146102cc5780631b87278d146102df57806323b872dd146102f25780633dc65fba14610305575f80fd5b8063081812fc116101ba578063081812fc1461023157806308b9e29e1461025c578063095ea7b3146102945780630cd83c58146102a7575f80fd5b8062629679146101df57806301ffc9a7146101f457806306fdde031461021c575b5f80fd5b6101f26101ed366004611b09565b61048d565b005b610207610202366004611b3e565b610549565b60405190151581526020015b60405180910390f35b61022461059a565b6040516102139190611b9c565b61024461023f366004611bae565b610629565b6040516001600160a01b039091168152602001610213565b61028661026a366004611bd3565b600860209081525f928352604080842090915290825290205481565b604051908152602001610213565b6101f26102a2366004611c04565b610650565b6102ba6102b5366004611bae565b6106b2565b60405161021396959493929190611c60565b6102866102da366004611bd3565b6107f1565b6101f26102ed366004611bae565b610842565b6101f2610300366004611ca8565b610891565b610286610313366004611d86565b61091a565b6101f2610326366004611ca8565b610bd9565b6101f2610339366004611b09565b610bf8565b6101f261034c366004611dea565b610d13565b61024461035f366004611bae565b610da3565b6101f2610372366004611e2e565b610dad565b610207610385366004611bae565b610ee6565b610286610398366004611b09565b611042565b6101f2611087565b61028660095481565b6102246103bc366004611eda565b61109a565b6006546001600160a01b0316610244565b61022461120e565b6101f26102a2366004611ef3565b6102076103f6366004611bd3565b61121d565b6101f2610409366004611f2c565b61128b565b61022461041c366004611bae565b6112a3565b61043461042f366004611bae565b61134d565b604051610213959493929190611f97565b610207610453366004611fd5565b61140a565b6101f2610466366004611b09565b611437565b610207610479366004611b09565b600a6020525f908152604090205460ff1681565b610495611471565b6001600160a01b0381165f908152600a602052604090205460ff166105015760405162461bcd60e51b815260206004820152601d60248201527f43726564656e7469616c4e46543a206e6f7420617574686f72697a656400000060448201526064015b60405180910390fd5b6001600160a01b0381165f818152600a6020526040808220805460ff19169055517f95a4c2ae425bb769549aa1a911911ff57c17ae811ae8c8962d0b9746fcb153979190a250565b5f6001600160e01b031982166380ac58cd60e01b148061057957506001600160e01b03198216635b5e139f60e01b145b8061059457506301ffc9a760e01b6001600160e01b03198316145b92915050565b60605f80546105a890611ffd565b80601f01602080910402602001604051908101604052809291908181526020018280546105d490611ffd565b801561061f5780601f106105f65761010080835404028352916020019161061f565b820191905f5260205f20905b81548152906001019060200180831161060257829003601f168201915b5050505050905090565b5f6106338261149e565b505f828152600460205260409020546001600160a01b0316610594565b60405162461bcd60e51b815260206004820152603160248201527f43726564656e7469616c4e46543a20536f756c626f756e6420746f6b656e2063604482015270185b9b9bdd08189948185c1c1c9bdd9959607a1b60648201526084016104f8565b5f81815260076020526040808220815160a08101909252805483928392839260609284928392829060ff1660048111156106ee576106ee611c2c565b60048111156106ff576106ff611c2c565b81526001820154602082015260028201546040820152600382015460ff161515606082015260048201805460809092019161073990611ffd565b80601f016020809104026020016040519081016040528092919081815260200182805461076590611ffd565b80156107b05780601f10610787576101008083540402835291602001916107b0565b820191905f5260205f20905b81548152906001019060200180831161079357829003601f168201915b5050505050815250509050805f015181602001518260400151836060015184608001516107dc8d610ee6565b949d939c50919a509850965090945092505050565b6001600160a01b0382165f9081526008602052604081208183600481111561081b5761081b611c2c565b600481111561082c5761082c611c2c565b81526020019081526020015f2054905092915050565b335f908152600a602052604090205460ff168061086957506006546001600160a01b031633145b6108855760405162461bcd60e51b81526004016104f890612035565b61088e816114d6565b50565b6001600160a01b0382166108ba57604051633250574960e11b81525f60048201526024016104f8565b5f6108c68383336115af565b9050836001600160a01b0316816001600160a01b031614610914576040516364283d7b60e01b81526001600160a01b03808616600483015260248201849052821660448201526064016104f8565b50505050565b335f908152600a602052604081205460ff168061094157506006546001600160a01b031633145b61095d5760405162461bcd60e51b81526004016104f890612035565b6001600160a01b0385166109b35760405162461bcd60e51b815260206004820181905260248201527f43726564656e7469616c4e46543a20696e76616c696420726563697069656e7460448201526064016104f8565b6001600160a01b0385165f908152600860205260408120818660048111156109dd576109dd611c2c565b60048111156109ee576109ee611c2c565b81526020019081526020015f20549050805f14610a46575f818152600760205260409020600381015460ff16158015610a36575060028101541580610a365750428160020154115b15610a4457610a44826114d6565b505b600980545f9182610a5683612097565b9091555090505f8515610a7f57610a7086620151806120af565b610a7a90426120c6565b610a81565b5f5b90506040518060a00160405280886004811115610aa057610aa0611c2c565b81524260208083019190915260408083018590525f6060840181905260809093018990528583526007909152902081518154829060ff19166001836004811115610aec57610aec611c2c565b02179055506020820151600182015560408201516002820155606082015160038201805460ff191691151591909117905560808201516004820190610b31908261211d565b5050506001600160a01b0388165f9081526008602052604081208391896004811115610b5f57610b5f611c2c565b6004811115610b7057610b70611c2c565b815260208101919091526040015f2055610b8a888361165b565b81886001600160a01b03167fd54e39083dd8c270bd2f77591821ecd2c8478629a641b99209d8818b2952e35c8984604051610bc69291906121d9565b60405180910390a3509695505050505050565b610bf383838360405180602001604052805f81525061128b565b505050565b610c00611471565b6001600160a01b038116610c565760405162461bcd60e51b815260206004820152601d60248201527f43726564656e7469616c4e46543a20696e76616c69642069737375657200000060448201526064016104f8565b6001600160a01b0381165f908152600a602052604090205460ff1615610cc85760405162461bcd60e51b815260206004820152602160248201527f43726564656e7469616c4e46543a20616c726561647920617574686f72697a656044820152601960fa1b60648201526084016104f8565b6001600160a01b0381165f818152600a6020526040808220805460ff19166001179055517f8b4006ca14f23d4e7aa8d120d1ab7c3761d650eefac1a5d6732dbea94b54ea249190a250565b335f908152600a602052604090205460ff1680610d3a57506006546001600160a01b031633145b610d565760405162461bcd60e51b81526004016104f890612035565b5f828152600260205260409020546001600160a01b0316610d895760405162461bcd60e51b81526004016104f8906121f4565b5f828152600760205260409020600401610bf3828261211d565b5f6105948261149e565b335f908152600a602052604090205460ff1680610dd457506006546001600160a01b031633145b610df05760405162461bcd60e51b81526004016104f890612035565b83610e3d5760405162461bcd60e51b815260206004820152601f60248201527f43726564656e7469616c4e46543a20656d70747920726563697069656e74730060448201526064016104f8565b6064841115610e995760405162461bcd60e51b815260206004820152602260248201527f43726564656e7469616c4e46543a20746f6f206d616e7920726563697069656e604482015261747360f01b60648201526084016104f8565b5f5b84811015610ede57610ed5868683818110610eb857610eb8612236565b9050602002016020810190610ecd9190611b09565b85858561091a565b50600101610e9b565b505050505050565b5f818152600260205260408120546001600160a01b0316610f0857505f919050565b5f82815260076020526040808220815160a081019092528054829060ff166004811115610f3757610f37611c2c565b6004811115610f4857610f48611c2c565b81526001820154602082015260028201546040820152600382015460ff1615156060820152600482018054608090920191610f8290611ffd565b80601f0160208091040260200160405190810160405280929190818152602001828054610fae90611ffd565b8015610ff95780601f10610fd057610100808354040283529160200191610ff9565b820191905f5260205f20905b815481529060010190602001808311610fdc57829003601f168201915b505050505081525050905080606001511561101657505f92915050565b60408101511580159061102c5750806040015142115b1561103957505f92915050565b50600192915050565b5f6001600160a01b03821661106c576040516322718ad960e21b81525f60048201526024016104f8565b506001600160a01b03165f9081526003602052604090205490565b61108f611471565b6110985f6116bc565b565b60605f8260048111156110af576110af611c2c565b036110de57505060408051808201909152600e81526d4261736963204964656e7469747960901b602082015290565b60018260048111156110f2576110f2611c2c565b0361112157505060408051808201909152600e81526d090d2ced0409ccae840aedee4e8d60931b602082015290565b600282600481111561113557611135611c2c565b0361116157505060408051808201909152600b81526a20b1ba34bb32902ab9b2b960a91b602082015290565b600382600481111561117557611175611c2c565b036111a85750506040805180820190915260128152712b32b934b334b2b2102232bb32b637b832b960711b602082015290565b60048260048111156111bc576111bc611c2c565b036111eb57505060408051808201909152600e81526d2a393ab9ba32b21026b2b6b132b960911b602082015290565b50506040805180820190915260078152662ab735b737bbb760c91b602082015290565b6060600180546105a890611ffd565b6001600160a01b0382165f90815260086020526040812081908184600481111561124957611249611c2c565b600481111561125a5761125a611c2c565b81526020019081526020015f20549050805f0361127a575f915050610594565b61128381610ee6565b949350505050565b611296848484610891565b610914338585858561170d565b60606112ae8261149e565b505f82815260076020526040902060040180546112ca90611ffd565b80601f01602080910402602001604051908101604052809291908181526020018280546112f690611ffd565b80156113415780601f1061131857610100808354040283529160200191611341565b820191905f5260205f20905b81548152906001019060200180831161132457829003601f168201915b50505050509050919050565b60076020525f90815260409020805460018201546002830154600384015460048501805460ff9586169694959394929093169261138990611ffd565b80601f01602080910402602001604051908101604052809291908181526020018280546113b590611ffd565b80156114005780601f106113d757610100808354040283529160200191611400565b820191905f5260205f20905b8154815290600101906020018083116113e357829003601f168201915b5050505050905085565b6001600160a01b039182165f90815260056020908152604080832093909416825291909152205460ff1690565b61143f611471565b6001600160a01b03811661146857604051631e4fbdf760e01b81525f60048201526024016104f8565b61088e816116bc565b6006546001600160a01b031633146110985760405163118cdaa760e01b81523360048201526024016104f8565b5f818152600260205260408120546001600160a01b03168061059457604051637e27328960e01b8152600481018490526024016104f8565b5f818152600260205260409020546001600160a01b03166115095760405162461bcd60e51b81526004016104f8906121f4565b5f8181526007602052604090206003015460ff161561156a5760405162461bcd60e51b815260206004820152601e60248201527f43726564656e7469616c4e46543a20616c7265616479207265766f6b6564000060448201526064016104f8565b5f81815260076020526040808220600301805460ff191660011790555182917f0d47d5695004d2a4180ebb40037756439184993a0d1c6d4a8ff3a6aa9325607491a250565b5f828152600260205260408120546001600160a01b031680158015906115dd57506001600160a01b03851615155b156116475760405162461bcd60e51b815260206004820152603460248201527f43726564656e7469616c4e46543a20536f756c626f756e6420746f6b656e2063604482015273185b9b9bdd081899481d1c985b9cd9995c9c995960621b60648201526084016104f8565b611652858585611833565b95945050505050565b6001600160a01b03821661168457604051633250574960e11b81525f60048201526024016104f8565b5f61169083835f6115af565b90506001600160a01b03811615610bf3576040516339e3563760e11b81525f60048201526024016104f8565b600680546001600160a01b038381166001600160a01b0319831681179093556040519116919082907f8be0079c531659141344cd1fd0a4f28419497f9722a3daafe3b4186f6b6457e0905f90a35050565b6001600160a01b0383163b1561182c57604051630a85bd0160e11b81526001600160a01b0384169063150b7a029061174f90889088908790879060040161224a565b6020604051808303815f875af1925050508015611789575060408051601f3d908101601f1916820190925261178691810190612286565b60015b6117f0573d8080156117b6576040519150601f19603f3d011682016040523d82523d5f602084013e6117bb565b606091505b5080515f036117e857604051633250574960e11b81526001600160a01b03851660048201526024016104f8565b805181602001fd5b6001600160e01b03198116630a85bd0160e11b14610ede57604051633250574960e11b81526001600160a01b03851660048201526024016104f8565b5050505050565b5f828152600260205260408120546001600160a01b039081169083161561185f5761185f818486611925565b6001600160a01b038116156118995761187a5f855f80611989565b6001600160a01b0381165f90815260036020526040902080545f190190555b6001600160a01b038516156118c7576001600160a01b0385165f908152600360205260409020805460010190555b5f8481526002602052604080822080546001600160a01b0319166001600160a01b0389811691821790925591518793918516917fddf252ad1be2c89b69c2b068fc378daa952ba7f163c4a11628f55a4df523b3ef91a4949350505050565b611930838383611a8d565b610bf3576001600160a01b03831661195e57604051637e27328960e01b8152600481018290526024016104f8565b60405163177e802f60e01b81526001600160a01b0383166004820152602481018290526044016104f8565b808061199d57506001600160a01b03821615155b15611a5e575f6119ac8461149e565b90506001600160a01b038316158015906119d85750826001600160a01b0316816001600160a01b031614155b80156119eb57506119e9818461140a565b155b15611a145760405163a9fbf51f60e01b81526001600160a01b03841660048201526024016104f8565b8115611a5c5783856001600160a01b0316826001600160a01b03167f8c5be1e5ebec7d5bd14f71427d1e84f3dd0314c0f7b2291e5b200ac8c7c3b92560405160405180910390a45b505b50505f90815260046020526040902080546001600160a01b0319166001600160a01b0392909216919091179055565b5f6001600160a01b038316158015906112835750826001600160a01b0316846001600160a01b03161480611ac65750611ac6848461140a565b806112835750505f908152600460205260409020546001600160a01b03908116911614919050565b80356001600160a01b0381168114611b04575f80fd5b919050565b5f60208284031215611b19575f80fd5b611b2282611aee565b9392505050565b6001600160e01b03198116811461088e575f80fd5b5f60208284031215611b4e575f80fd5b8135611b2281611b29565b5f81518084525f5b81811015611b7d57602081850181015186830182015201611b61565b505f602082860101526020601f19601f83011685010191505092915050565b602081525f611b226020830184611b59565b5f60208284031215611bbe575f80fd5b5035919050565b803560058110611b04575f80fd5b5f8060408385031215611be4575f80fd5b611bed83611aee565b9150611bfb60208401611bc5565b90509250929050565b5f8060408385031215611c15575f80fd5b611c1e83611aee565b946020939093013593505050565b634e487b7160e01b5f52602160045260245ffd5b60058110611c5c57634e487b7160e01b5f52602160045260245ffd5b9052565b611c6a8188611c40565b856020820152846040820152831515606082015260c060808201525f611c9360c0830185611b59565b905082151560a0830152979650505050505050565b5f805f60608486031215611cba575f80fd5b611cc384611aee565b9250611cd160208501611aee565b9150604084013590509250925092565b634e487b7160e01b5f52604160045260245ffd5b5f67ffffffffffffffff80841115611d0f57611d0f611ce1565b604051601f8501601f19908116603f01168101908282118183101715611d3757611d37611ce1565b81604052809350858152868686011115611d4f575f80fd5b858560208301375f602087830101525050509392505050565b5f82601f830112611d77575f80fd5b611b2283833560208501611cf5565b5f805f8060808587031215611d99575f80fd5b611da285611aee565b9350611db060208601611bc5565b925060408501359150606085013567ffffffffffffffff811115611dd2575f80fd5b611dde87828801611d68565b91505092959194509250565b5f8060408385031215611dfb575f80fd5b82359150602083013567ffffffffffffffff811115611e18575f80fd5b611e2485828601611d68565b9150509250929050565b5f805f805f60808688031215611e42575f80fd5b853567ffffffffffffffff80821115611e59575f80fd5b818801915088601f830112611e6c575f80fd5b813581811115611e7a575f80fd5b8960208260051b8501011115611e8e575f80fd5b60208301975080965050611ea460208901611bc5565b9450604088013593506060880135915080821115611ec0575f80fd5b50611ecd88828901611d68565b9150509295509295909350565b5f60208284031215611eea575f80fd5b611b2282611bc5565b5f8060408385031215611f04575f80fd5b611f0d83611aee565b915060208301358015158114611f21575f80fd5b809150509250929050565b5f805f8060808587031215611f3f575f80fd5b611f4885611aee565b9350611f5660208601611aee565b925060408501359150606085013567ffffffffffffffff811115611f78575f80fd5b8501601f81018713611f88575f80fd5b611dde87823560208401611cf5565b611fa18187611c40565b846020820152836040820152821515606082015260a060808201525f611fca60a0830184611b59565b979650505050505050565b5f8060408385031215611fe6575f80fd5b611fef83611aee565b9150611bfb60208401611aee565b600181811c9082168061201157607f821691505b60208210810361202f57634e487b7160e01b5f52602260045260245ffd5b50919050565b6020808252602e908201527f43726564656e7469616c4e46543a2063616c6c6572206973206e6f742061757460408201526d3437b934bd32b21034b9b9bab2b960911b606082015260800190565b634e487b7160e01b5f52601160045260245ffd5b5f600182016120a8576120a8612083565b5060010190565b808202811582820484141761059457610594612083565b8082018082111561059457610594612083565b601f821115610bf357805f5260205f20601f840160051c810160208510156120fe5750805b601f840160051c820191505b8181101561182c575f815560010161210a565b815167ffffffffffffffff81111561213757612137611ce1565b61214b816121458454611ffd565b846120d9565b602080601f83116001811461217e575f84156121675750858301515b5f19600386901b1c1916600185901b178555610ede565b5f85815260208120601f198616915b828110156121ac5788860151825594840194600190910190840161218d565b50858210156121c957878501515f19600388901b60f8161c191681555b5050505050600190811b01905550565b604081016121e78285611c40565b8260208301529392505050565b60208082526022908201527f43726564656e7469616c4e46543a20746f6b656e20646f65736e2774206578696040820152611cdd60f21b606082015260800190565b634e487b7160e01b5f52603260045260245ffd5b6001600160a01b03858116825284166020820152604081018390526080606082018190525f9061227c90830184611b59565b9695505050505050565b5f60208284031215612296575f80fd5b8151611b2281611b2956fea2646970667358221220d4a13486c5ba68dae7912f30e1bf1c43f94d9358d90af1ac1477dab6b62f5d3e64736f6c63430008180033",
  "linkReferences": {},
  "deployedLinkReferences": {}
}