{
  "_format": "hh-sol-artifact-1",
  "contractName": "IdentityProofManager",
  "sourceName": "contracts/IdentityProofManager.sol",
  "abi": [
    {
      "inputs": [],
      "stateMutability": "nonpayable",
      "type": "constructor"
    },
    {
      "anonymous": false,
      "inputs": [
        {
          "indexed": true,
          "internalType": "address",
          "name": "caller",
          "type": "address"
        }
      ],
      "name": "AuthorizedCallerAdded",
      "type": "event"
    },
    {
      "anonymous": false,
      "inputs": [
        {
          "indexed": true,
          "internalType": "address",
          "name": "caller",
          "type": "address"
        }
      ],
      "name": "AuthorizedCallerRemoved",
      "type": "event"
    },
    {
      "anonymous": false,
      "inputs": [
        {
          "indexed": true,
          "internalType": "address",
          "name": "user",
          "type": "address"
        },
        {
          "indexed": false,
          "internalType": "uint256",
          "name": "timestamp",
          "type": "uint256"
        }
      ],
      "name": "IdentityRegistered",
      "type": "event"
    },
    {
      "anonymous": false,
      "inputs": [
        {
          "indexed": true,
          "internalType": "address",
          "name": "user",
          "type": "address"
        },
        {
          "indexed": false,
          "internalType": "string",
          "name": "dataType",
          "type": "string"
        }
      ],
      "name": "IdentityUpdated",
      "type": "event"
    },
    {
      "inputs": [
        {
          "internalType": "address",
          "name": "caller",
          "type": "address"
        }
      ],
      "name": "addAuthorizedCaller",
      "outputs": [],
      "stateMutability": "nonpayable",
      "type": "function"
    },
    {
      "inputs": [
        {
          "internalType": "address",
          "name": "contractAddress",
          "type": "address"
        }
      ],
      "name": "allowContractAccess",
      "outputs": [],
      "stateMutability": "nonpayable",
      "type": "function"
    },
    {
      "inputs": [
        {
          "internalType": "address[]",
          "name": "contractAddresses",
          "type": "address[]"
        }
      ],
      "name": "allowMultipleContracts",
      "outputs": [],
      "stateMutability": "nonpayable",
      "type": "function"
    },
    {
      "inputs": [
        {
          "internalType": "address",
          "name": "",
          "type": "address"
        }
      ],
      "name": "authorizedCallers",
      "outputs": [
        {
          "internalType": "bool",
          "name": "",
          "type": "bool"
        }
      ],
      "stateMutability": "view",
      "type": "function"
    },
    {
      "inputs": [
        {
          "internalType": "address",
          "name": "user",
          "type": "address"
        }
      ],
      "name": "getEncryptedAccountAge",
      "outputs": [
        {
          "internalType": "euint32",
          "name": "",
          "type": "bytes32"
        }
      ],
      "stateMutability": "view",
      "type": "function"
    },
    {
      "inputs": [
        {
          "internalType": "address",
          "name": "user",
          "type": "address"
        }
      ],
      "name": "getEncryptedAssetBalance",
      "outputs": [
        {
          "internalType": "euint32",
          "name": "",
          "type": "bytes32"
        }
      ],
      "stateMutability": "view",
      "type": "function"
    },
    {
      "inputs": [
        {
          "internalType": "address",
          "name": "user",
          "type": "address"
        }
      ],
      "name": "getEncryptedIdentity",
      "outputs": [
        {
          "components": [
            {
              "internalType": "euint32",
              "name": "assetBalance",
              "type": "bytes32"
            },
            {
              "internalType": "euint32",
              "name": "nftCount",
              "type": "bytes32"
            },
            {
              "internalType": "euint32",
              "name": "accountAge",
              "type": "bytes32"
            },
            {
              "internalType": "euint32",
              "name": "txCount",
              "type": "bytes32"
            },
            {
              "internalType": "bool",
              "name": "exists",
              "type": "bool"
            },
            {
              "internalType": "uint256",
              "name": "registeredAt",
              "type": "uint256"
            }
          ],
          "internalType": "struct IdentityProofManager.EncryptedIdentity",
          "name": "",
          "type": "tuple"
        }
      ],
      "stateMutability": "view",
      "type": "function"
    },
    {
      "inputs": [
        {
          "internalType": "address",
          "name": "user",
          "type": "address"
        }
      ],
      "name": "getEncryptedNFTCount",
      "outputs": [
        {
          "internalType": "euint32",
          "name": "",
          "type": "bytes32"
        }
      ],
      "stateMutability": "view",
      "type": "function"
    },
    {
      "inputs": [
        {
          "internalType": "address",
          "name": "user",
          "type": "address"
        }
      ],
      "name": "getEncryptedTxCount",
      "outputs": [
        {
          "internalType": "euint32",
          "name": "",
          "type": "bytes32"
        }
      ],
      "stateMutability": "view",
      "type": "function"
    },
    {
      "inputs": [
        {
          "internalType": "address",
          "name": "user",
          "type": "address"
        }
      ],
      "name": "getRegistrationTime",
      "outputs": [
        {
          "internalType": "uint256",
          "name": "",
          "type": "uint256"
        }
      ],
      "stateMutability": "view",
      "type": "function"
    },
    {
      "inputs": [
        {
          "internalType": "address",
          "name": "",
          "type": "address"
        }
      ],
      "name": "hasRegistered",
      "outputs": [
        {
          "internalType": "bool",
          "name": "",
          "type": "bool"
        }
      ],
      "stateMutability": "view",
      "type": "function"
    },
    {
      "inputs": [
        {
          "internalType": "address",
          "name": "user",
          "type": "address"
        }
      ],
      "name": "isRegistered",
      "outputs": [
        {
          "internalType": "bool",
          "name": "",
          "type": "bool"
        }
      ],
      "stateMutability": "view",
      "type": "function"
    },
    {
      "inputs": [],
      "name": "owner",
      "outputs": [
        {
          "internalType": "address",
          "name": "",
          "type": "address"
        }
      ],
      "stateMutability": "view",
      "type": "function"
    },
    {
      "inputs": [],
      "name": "protocolId",
      "outputs": [
        {
          "internalType": "uint256",
          "name": "",
          "type": "uint256"
        }
      ],
      "stateMutability": "pure",
      "type": "function"
    },
    {
      "inputs": [
        {
          "internalType": "externalEuint32",
          "name": "encryptedAsset",
          "type": "bytes32"
        },
        {
          "internalType": "externalEuint32",
          "name": "encryptedNFT",
          "type": "bytes32"
        },
        {
          "internalType": "externalEuint32",
          "name": "encryptedAge",
          "type": "bytes32"
        },
        {
          "internalType": "externalEuint32",
          "name": "encryptedTx",
          "type": "bytes32"
        },
        {
          "internalType": "bytes",
          "name": "inputProof",
          "type": "bytes"
        }
      ],
      "name": "registerIdentity",
      "outputs": [],
      "stateMutability": "nonpayable",
      "type": "function"
    },
    {
      "inputs": [
        {
          "internalType": "address",
          "name": "caller",
          "type": "address"
        }
      ],
      "name": "removeAuthorizedCaller",
      "outputs": [],
      "stateMutability": "nonpayable",
      "type": "function"
    },
    {
      "inputs": [
        {
          "internalType": "externalEuint32",
          "name": "encryptedAge",
          "type": "bytes32"
        },
        {
          "internalType": "bytes",
          "name": "inputProof",
          "type": "bytes"
        }
      ],
      "name": "updateAccountAge",
      "outputs": [],
      "stateMutability": "nonpayable",
      "type": "function"
    },
    {
      "inputs": [
        {
          "internalType": "externalEuint32",
          "name": "encryptedBalance",
          "type": "bytes32"
        },
        {
          "internalType": "bytes",
          "name": "inputProof",
          "type": "bytes"
        }
      ],
      "name": "updateAssetBalance",
      "outputs": [],
      "stateMutability": "nonpayable",
      "type": "function"
    },
    {
      "inputs": [
        {
          "internalType": "externalEuint32",
          "name": "encryptedNFT",
          "type": "bytes32"
        },
        {
          "internalType": "bytes",
          "name": "inputProof",
          "type": "bytes"
        }
      ],
      "name": "updateNFTCount",
      "outputs": [],
      "stateMutability": "nonpayable",
      "type": "function"
    },
    {
      "inputs": [
        {
          "internalType": "externalEuint32",
          "name": "encryptedTx",
          "type": "bytes32"
        },
        {
          "internalType": "bytes",
          "name": "inputProof",
          "type": "bytes"
        }
      ],
      "name": "updateTxCount",
      "outputs": [],
      "stateMutability": "nonpayable",
      "type": "function"
    }
  ],
  "bytecode": "0x608060405234801561000f575f80fd5b5061018a6100ae604080516080810182525f808252602082018190529181018290526060810191909152506040805160808101825273687820221192c5b662b25367f70076a37bc79b6c815273848b0066793bcc60346da1f49049357399b8d595602082015273a02cda4ca3a71d7c46997716f4283aa851c2881291810191909152731364cbbf2cdf5032c47d8226a6f6fbd2afcdacac606082015290565b80517f9e7b61f58c47dc699ac88507c4f5bb9f121c03808c5676a8078fe583e464970080546001600160a01b03199081166001600160a01b039384161790915560208301517f9e7b61f58c47dc699ac88507c4f5bb9f121c03808c5676a8078fe583e46497018054831691841691909117905560408301517f9e7b61f58c47dc699ac88507c4f5bb9f121c03808c5676a8078fe583e46497028054831691841691909117905560608301517f9e7b61f58c47dc699ac88507c4f5bb9f121c03808c5676a8078fe583e46497038054909216921691909117905550565b600380546001600160a01b031916339081179091555f908152600260205260409020805460ff191660011790556116a6806101c45f395ff3fe608060405234801561000f575f80fd5b5060043610610127575f3560e01c80637a968cff116100a9578063b471520e1161006e578063b471520e146102f0578063b7aa023114610303578063c3c5a54714610316578063da1f12ab14610344578063f6b845201461034c575f80fd5b80637a968cff1461026a5780637fd411d91461027d578063837ef1a0146102905780638da5cb5b146102a3578063a0d03526146102ce575f80fd5b80633a45dde0116100ef5780633a45dde0146101ec578063536fff6c146101ff57806358a4c290146102315780636499d0d8146102445780636db6e1be14610257575f80fd5b80630d66c6ae1461012b57806313a155ea146101405780632a9c9d60146101535780632b495c8914610179578063306e00cf1461018c575b5f80fd5b61013e610139366004611379565b61035f565b005b61013e61014e3660046113c1565b61044a565b6101666101613660046113c1565b610523565b6040519081526020015b60405180910390f35b6101666101873660046113c1565b61057e565b61019f61019a3660046113c1565b61061c565b60405161017091905f60c0820190508251825260208301516020830152604083015160408301526060830151606083015260808301511515608083015260a083015160a083015292915050565b61013e6101fa366004611379565b61072e565b61022161020d3660046113c1565b60026020525f908152604090205460ff1681565b6040519015158152602001610170565b61016661023f3660046113c1565b610802565b61013e610252366004611379565b6108a0565b61013e6102653660046113e7565b610975565b61013e610278366004611379565b610b58565b61013e61028b366004611456565b610c2e565b61016661029e3660046113c1565b610ec0565b6003546102b6906001600160a01b031681565b6040516001600160a01b039091168152602001610170565b6102216102dc3660046113c1565b60016020525f908152604090205460ff1681565b61013e6102fe3660046113c1565b610f5b565b61013e6103113660046113c1565b611046565b6102216103243660046113c1565b6001600160a01b03165f9081526020819052604090206004015460ff1690565b612711610166565b61016661035a3660046113c1565b6110b8565b335f8181526020819052604090206004015460ff166103995760405162461bcd60e51b8152600401610390906114bb565b60405180910390fd5b5f6103d98585858080601f0160208091040260200160405190810160405280939291908181526020018383808284375f9201919091525061115692505050565b90506103e5813361116a565b506103ef8161117c565b50335f8181526020819052604090819020600301839055515f805160206116518339815191529061043b906020808252600790820152661d1e10dbdd5b9d60ca1b604082015260600190565b60405180910390a25050505050565b6003546001600160a01b031633146104745760405162461bcd60e51b815260040161039090611504565b6001600160a01b0381166104d85760405162461bcd60e51b815260206004820152602560248201527f4964656e7469747950726f6f664d616e616765723a20696e76616c6964206164604482015264647265737360d81b6064820152608401610390565b6001600160a01b0381165f81815260026020526040808220805460ff19166001179055517feb1b9b92e50b7f88f9ff25d56765095ac6e91540eee214906f4036a908ffbdef9190a250565b6001600160a01b0381165f90815260208190526040812060040154829060ff1661055f5760405162461bcd60e51b8152600401610390906114bb565b50506001600160a01b03165f9081526020819052604090206005015490565b335f9081526002602052604081205460ff16806105a557506003546001600160a01b031633145b6105c15760405162461bcd60e51b815260040161039090611551565b6001600160a01b0382165f90815260208190526040902060040154829060ff166105fd5760405162461bcd60e51b8152600401610390906114bb565b50506001600160a01b03165f9081526020819052604090206001015490565b6040805160c0810182525f8082526020808301829052828401829052606083018290526080830182905260a0830182905233825260029052919091205460ff168061067157506003546001600160a01b031633145b61068d5760405162461bcd60e51b815260040161039090611551565b6001600160a01b0382165f90815260208190526040902060040154829060ff166106c95760405162461bcd60e51b8152600401610390906114bb565b50506001600160a01b03165f9081526020818152604091829020825160c0810184528154815260018201549281019290925260028101549282019290925260038201546060820152600482015460ff161515608082015260059091015460a082015290565b335f8181526020819052604090206004015460ff1661075f5760405162461bcd60e51b8152600401610390906114bb565b5f61079f8585858080601f0160208091040260200160405190810160405280939291908181526020018383808284375f9201919091525061115692505050565b90506107ab813361116a565b506107b58161117c565b50335f8181526020819052604090819020600101839055515f805160206116518339815191529061043b906020808252600890820152671b999d10dbdd5b9d60c21b604082015260600190565b335f9081526002602052604081205460ff168061082957506003546001600160a01b031633145b6108455760405162461bcd60e51b815260040161039090611551565b6001600160a01b0382165f90815260208190526040902060040154829060ff166108815760405162461bcd60e51b8152600401610390906114bb565b50506001600160a01b03165f9081526020819052604090206002015490565b335f8181526020819052604090206004015460ff166108d15760405162461bcd60e51b8152600401610390906114bb565b5f6109118585858080601f0160208091040260200160405190810160405280939291908181526020018383808284375f9201919091525061115692505050565b905061091d813361116a565b506109278161117c565b50335f8181526020819052604090819020839055515f805160206116518339815191529061043b906020808252600c908201526b617373657442616c616e636560a01b604082015260600190565b335f8181526020819052604090206004015460ff166109a65760405162461bcd60e51b8152600401610390906114bb565b816109fd5760405162461bcd60e51b815260206004820152602160248201527f4964656e7469747950726f6f664d616e616765723a20656d70747920617272616044820152607960f81b6064820152608401610390565b600a821115610a5f5760405162461bcd60e51b815260206004820152602860248201527f4964656e7469747950726f6f664d616e616765723a20746f6f206d616e7920636044820152676f6e74726163747360c01b6064820152608401610390565b335f908152602081905260408120905b83811015610b51575f858583818110610a8a57610a8a61159f565b9050602002016020810190610a9f91906113c1565b90506001600160a01b038116610b0e5760405162461bcd60e51b815260206004820152602e60248201527f4964656e7469747950726f6f664d616e616765723a20696e76616c696420616460448201526d647265737320696e20617272617960901b6064820152608401610390565b8254610b1a908261116a565b50610b2983600101548261116a565b50610b3883600201548261116a565b50610b4783600301548261116a565b5050600101610a6f565b5050505050565b335f8181526020819052604090206004015460ff16610b895760405162461bcd60e51b8152600401610390906114bb565b5f610bc98585858080601f0160208091040260200160405190810160405280939291908181526020018383808284375f9201919091525061115692505050565b9050610bd5813361116a565b50610bdf8161117c565b50335f8181526020819052604090819020600201839055515f805160206116518339815191529061043b906020808252600a90820152696163636f756e7441676560b01b604082015260600190565b335f9081526001602052604090205460ff1615610c9e5760405162461bcd60e51b815260206004820152602860248201527f4964656e7469747950726f6f664d616e616765723a20616c726561647920726560448201526719da5cdd195c995960c21b6064820152608401610390565b5f610cde8784848080601f0160208091040260200160405190810160405280939291908181526020018383808284375f9201919091525061115692505050565b90505f610d208785858080601f0160208091040260200160405190810160405280939291908181526020018383808284375f9201919091525061115692505050565b90505f610d628786868080601f0160208091040260200160405190810160405280939291908181526020018383808284375f9201919091525061115692505050565b90505f610da48787878080601f0160208091040260200160405190810160405280939291908181526020018383808284375f9201919091525061115692505050565b6040805160c0810182528681526020808201878152828401878152606084018681526001608086018181524260a08801908152335f908152808852898120985189559551888401559351600288015591516003870155905160048601805491151560ff199283161790559151600590950194909455918390529290922080549092161790559050610e348461117c565b50610e3f843361116a565b50610e498361117c565b50610e54833361116a565b50610e5e8261117c565b50610e69823361116a565b50610e738161117c565b50610e7e813361116a565b5060405142815233907f22bfb6218489c201b6ec174e5dd0380b7877b3a2d12eed0542f6b5e8ef712f289060200160405180910390a250505050505050505050565b335f9081526002602052604081205460ff1680610ee757506003546001600160a01b031633145b610f035760405162461bcd60e51b815260040161039090611551565b6001600160a01b0382165f90815260208190526040902060040154829060ff16610f3f5760405162461bcd60e51b8152600401610390906114bb565b50506001600160a01b03165f9081526020819052604090205490565b335f8181526020819052604090206004015460ff16610f8c5760405162461bcd60e51b8152600401610390906114bb565b6001600160a01b038216610ff95760405162461bcd60e51b815260206004820152602e60248201527f4964656e7469747950726f6f664d616e616765723a20696e76616c696420636f60448201526d6e7472616374206164647265737360901b6064820152608401610390565b335f9081526020819052604090208054611013908461116a565b5061102281600101548461116a565b5061103181600201548461116a565b5061104081600301548461116a565b50505050565b6003546001600160a01b031633146110705760405162461bcd60e51b815260040161039090611504565b6001600160a01b0381165f81815260026020526040808220805460ff19169055517fc3803387881faad271c47728894e3e36fac830ffc8602ca6fc07733cbda775809190a250565b335f9081526002602052604081205460ff16806110df57506003546001600160a01b031633145b6110fb5760405162461bcd60e51b815260040161039090611551565b6001600160a01b0382165f90815260208190526040902060040154829060ff166111375760405162461bcd60e51b8152600401610390906114bb565b50506001600160a01b03165f9081526020819052604090206003015490565b5f6111638383600461118b565b9392505050565b5f61117583836112ab565b5090919050565b5f61118782306112ab565b5090565b7f9e7b61f58c47dc699ac88507c4f5bb9f121c03808c5676a8078fe583e46497015460405163196d0b9b60e01b81525f917f9e7b61f58c47dc699ac88507c4f5bb9f121c03808c5676a8078fe583e4649700916001600160a01b039091169063196d0b9b906112049088903390899089906004016115b3565b6020604051808303815f875af1158015611220573d5f803e3d5ffd5b505050506040513d601f19601f820116820180604052508101906112449190611639565b8154604051630f8e573b60e21b8152600481018390523360248201529193506001600160a01b031690633e395cec906044015f604051808303815f87803b15801561128d575f80fd5b505af115801561129f573d5f803e3d5ffd5b50505050509392505050565b5f7f9e7b61f58c47dc699ac88507c4f5bb9f121c03808c5676a8078fe583e46497008054604051635ca4b5b160e11b8152600481018690526001600160a01b03858116602483015292935091169063b9496b62906044015f604051808303815f87803b158015611319575f80fd5b505af115801561132b573d5f803e3d5ffd5b50505050505050565b5f8083601f840112611344575f80fd5b50813567ffffffffffffffff81111561135b575f80fd5b602083019150836020828501011115611372575f80fd5b9250929050565b5f805f6040848603121561138b575f80fd5b83359250602084013567ffffffffffffffff8111156113a8575f80fd5b6113b486828701611334565b9497909650939450505050565b5f602082840312156113d1575f80fd5b81356001600160a01b0381168114611163575f80fd5b5f80602083850312156113f8575f80fd5b823567ffffffffffffffff8082111561140f575f80fd5b818501915085601f830112611422575f80fd5b813581811115611430575f80fd5b8660208260051b8501011115611444575f80fd5b60209290920196919550909350505050565b5f805f805f8060a0878903121561146b575f80fd5b86359550602087013594506040870135935060608701359250608087013567ffffffffffffffff81111561149d575f80fd5b6114a989828a01611334565b979a9699509497509295939492505050565b60208082526029908201527f4964656e7469747950726f6f664d616e616765723a2075736572206e6f7420726040820152681959da5cdd195c995960ba1b606082015260800190565b6020808252602d908201527f4964656e7469747950726f6f664d616e616765723a2063616c6c65722069732060408201526c3737ba103a34329037bbb732b960991b606082015260800190565b6020808252602e908201527f4964656e7469747950726f6f664d616e616765723a2063616c6c65722069732060408201526d1b9bdd08185d5d1a1bdc9a5e995960921b606082015260800190565b634e487b7160e01b5f52603260045260245ffd5b8481525f602060018060a01b03861660208401526080604084015284518060808501525f5b818110156115f45786810183015185820160a0015282016115d8565b505f60a0828601015260a0601f19601f830116850101925050506054831061162a57634e487b7160e01b5f52602160045260245ffd5b82606083015295945050505050565b5f60208284031215611649575f80fd5b505191905056fe8b59ec232bae8e23fe031d1cacdaae5d1c57fb36ad6ca568850b6efbfb0d76b0a26469706673582212206f338aa228eaabf174036adcb95bed5aa5f3339955e1711fdb03bd95f865044e64736f6c63430008180033",
  "linkReferences": {},
  "deployedLinkReferences": {}
}