{
  "_format": "hh-sol-artifact-1",
  "contractName": "ReputationScore",
  "sourceName": "contracts/ReputationScore.sol",
  "abi": [
    {
      "inputs": [],
      "stateMutability": "nonpayable",
      "type": "constructor"
    },
    {
      "anonymous": false,
      "inputs": [
        {
          "indexed": true,
          "internalType": "address",
          "name": "caller",
          "type": "address"
        }
      ],
      "name": "AuthorizedCallerAdded",
      "type": "event"
    },
    {
      "anonymous": false,
      "inputs": [
        {
          "indexed": true,
          "internalType": "address",
          "name": "caller",
          "type": "address"
        }
      ],
      "name": "AuthorizedCallerRemoved",
      "type": "event"
    },
    {
      "anonymous": false,
      "inputs": [
        {
          "indexed": true,
          "internalType": "address",
          "name": "user",
          "type": "address"
        },
        {
          "indexed": false,
          "internalType": "enum ReputationScore.ReputationLevel",
          "name": "newLevel",
          "type": "uint8"
        }
      ],
      "name": "LevelUp",
      "type": "event"
    },
    {
      "anonymous": false,
      "inputs": [
        {
          "indexed": true,
          "internalType": "address",
          "name": "user",
          "type": "address"
        },
        {
          "indexed": false,
          "internalType": "int256",
          "name": "change",
          "type": "int256"
        },
        {
          "indexed": false,
          "internalType": "uint256",
          "name": "newScore",
          "type": "uint256"
        }
      ],
      "name": "ScoreChanged",
      "type": "event"
    },
    {
      "inputs": [],
      "name": "LEVEL_ACTIVE",
      "outputs": [
        {
          "internalType": "uint256",
          "name": "",
          "type": "uint256"
        }
      ],
      "stateMutability": "view",
      "type": "function"
    },
    {
      "inputs": [],
      "name": "LEVEL_LEGEND",
      "outputs": [
        {
          "internalType": "uint256",
          "name": "",
          "type": "uint256"
        }
      ],
      "stateMutability": "view",
      "type": "function"
    },
    {
      "inputs": [],
      "name": "LEVEL_TRUSTED",
      "outputs": [
        {
          "internalType": "uint256",
          "name": "",
          "type": "uint256"
        }
      ],
      "stateMutability": "view",
      "type": "function"
    },
    {
      "inputs": [],
      "name": "LEVEL_VETERAN",
      "outputs": [
        {
          "internalType": "uint256",
          "name": "",
          "type": "uint256"
        }
      ],
      "stateMutability": "view",
      "type": "function"
    },
    {
      "inputs": [],
      "name": "PENALTY_INACTIVE_MONTHLY",
      "outputs": [
        {
          "internalType": "uint256",
          "name": "",
          "type": "uint256"
        }
      ],
      "stateMutability": "view",
      "type": "function"
    },
    {
      "inputs": [],
      "name": "PENALTY_MALICIOUS_TX",
      "outputs": [
        {
          "internalType": "uint256",
          "name": "",
          "type": "uint256"
        }
      ],
      "stateMutability": "view",
      "type": "function"
    },
    {
      "inputs": [],
      "name": "PENALTY_REPORTED",
      "outputs": [
        {
          "internalType": "uint256",
          "name": "",
          "type": "uint256"
        }
      ],
      "stateMutability": "view",
      "type": "function"
    },
    {
      "inputs": [],
      "name": "REWARD_DAO_VOTE",
      "outputs": [
        {
          "internalType": "uint256",
          "name": "",
          "type": "uint256"
        }
      ],
      "stateMutability": "view",
      "type": "function"
    },
    {
      "inputs": [],
      "name": "REWARD_IDENTITY_VERIFIED",
      "outputs": [
        {
          "internalType": "uint256",
          "name": "",
          "type": "uint256"
        }
      ],
      "stateMutability": "view",
      "type": "function"
    },
    {
      "inputs": [],
      "name": "REWARD_OPENSOURCE",
      "outputs": [
        {
          "internalType": "uint256",
          "name": "",
          "type": "uint256"
        }
      ],
      "stateMutability": "view",
      "type": "function"
    },
    {
      "inputs": [],
      "name": "REWARD_TX_SUCCESS",
      "outputs": [
        {
          "internalType": "uint256",
          "name": "",
          "type": "uint256"
        }
      ],
      "stateMutability": "view",
      "type": "function"
    },
    {
      "inputs": [],
      "name": "REWARD_WEEKLY_ACTIVE",
      "outputs": [
        {
          "internalType": "uint256",
          "name": "",
          "type": "uint256"
        }
      ],
      "stateMutability": "view",
      "type": "function"
    },
    {
      "inputs": [
        {
          "internalType": "address",
          "name": "caller",
          "type": "address"
        }
      ],
      "name": "addAuthorizedCaller",
      "outputs": [],
      "stateMutability": "nonpayable",
      "type": "function"
    },
    {
      "inputs": [
        {
          "internalType": "address",
          "name": "user",
          "type": "address"
        },
        {
          "internalType": "uint256",
          "name": "amount",
          "type": "uint256"
        }
      ],
      "name": "addScore",
      "outputs": [],
      "stateMutability": "nonpayable",
      "type": "function"
    },
    {
      "inputs": [
        {
          "internalType": "address",
          "name": "",
          "type": "address"
        }
      ],
      "name": "authorizedCallers",
      "outputs": [
        {
          "internalType": "bool",
          "name": "",
          "type": "bool"
        }
      ],
      "stateMutability": "view",
      "type": "function"
    },
    {
      "inputs": [
        {
          "internalType": "address",
          "name": "user",
          "type": "address"
        },
        {
          "internalType": "uint256",
          "name": "amount",
          "type": "uint256"
        }
      ],
      "name": "deductScore",
      "outputs": [],
      "stateMutability": "nonpayable",
      "type": "function"
    },
    {
      "inputs": [
        {
          "internalType": "address",
          "name": "user",
          "type": "address"
        }
      ],
      "name": "getLevel",
      "outputs": [
        {
          "internalType": "enum ReputationScore.ReputationLevel",
          "name": "",
          "type": "uint8"
        }
      ],
      "stateMutability": "view",
      "type": "function"
    },
    {
      "inputs": [
        {
          "internalType": "address",
          "name": "user",
          "type": "address"
        }
      ],
      "name": "getUserReputationData",
      "outputs": [
        {
          "internalType": "uint256",
          "name": "score",
          "type": "uint256"
        },
        {
          "internalType": "enum ReputationScore.ReputationLevel",
          "name": "level",
          "type": "uint8"
        },
        {
          "internalType": "uint256",
          "name": "lastActivityTime",
          "type": "uint256"
        },
        {
          "internalType": "uint256",
          "name": "totalVerifications",
          "type": "uint256"
        },
        {
          "internalType": "uint256",
          "name": "totalContributions",
          "type": "uint256"
        }
      ],
      "stateMutability": "view",
      "type": "function"
    },
    {
      "inputs": [
        {
          "internalType": "address",
          "name": "user",
          "type": "address"
        }
      ],
      "name": "incrementContributionCount",
      "outputs": [],
      "stateMutability": "nonpayable",
      "type": "function"
    },
    {
      "inputs": [
        {
          "internalType": "address",
          "name": "user",
          "type": "address"
        }
      ],
      "name": "incrementVerificationCount",
      "outputs": [],
      "stateMutability": "nonpayable",
      "type": "function"
    },
    {
      "inputs": [
        {
          "internalType": "address",
          "name": "user",
          "type": "address"
        }
      ],
      "name": "isActiveUser",
      "outputs": [
        {
          "internalType": "bool",
          "name": "",
          "type": "bool"
        }
      ],
      "stateMutability": "view",
      "type": "function"
    },
    {
      "inputs": [
        {
          "internalType": "address",
          "name": "user",
          "type": "address"
        },
        {
          "internalType": "uint256",
          "name": "minScore",
          "type": "uint256"
        }
      ],
      "name": "meetsScoreRequirement",
      "outputs": [
        {
          "internalType": "bool",
          "name": "",
          "type": "bool"
        }
      ],
      "stateMutability": "view",
      "type": "function"
    },
    {
      "inputs": [],
      "name": "owner",
      "outputs": [
        {
          "internalType": "address",
          "name": "",
          "type": "address"
        }
      ],
      "stateMutability": "view",
      "type": "function"
    },
    {
      "inputs": [
        {
          "internalType": "address",
          "name": "caller",
          "type": "address"
        }
      ],
      "name": "removeAuthorizedCaller",
      "outputs": [],
      "stateMutability": "nonpayable",
      "type": "function"
    },
    {
      "inputs": [
        {
          "internalType": "address",
          "name": "",
          "type": "address"
        }
      ],
      "name": "reputations",
      "outputs": [
        {
          "internalType": "uint256",
          "name": "score",
          "type": "uint256"
        },
        {
          "internalType": "uint256",
          "name": "lastActivityTime",
          "type": "uint256"
        },
        {
          "internalType": "uint256",
          "name": "totalVerifications",
          "type": "uint256"
        },
        {
          "internalType": "uint256",
          "name": "totalContributions",
          "type": "uint256"
        }
      ],
      "stateMutability": "view",
      "type": "function"
    }
  ],
  "bytecode": "0x608060405234801561000f575f80fd5b50600280546001600160a01b031916339081179091555f908152600160208190526040909120805460ff19169091179055610c5b8061004d5f395ff3fe608060405234801561000f575f80fd5b506004361061016d575f3560e01c80638da5cb5b116100d9578063d0f32b3411610093578063dadb089e1161006e578063dadb089e14610366578063e26fb0b51461036e578063f10c41af14610377578063fc4b956c14610380575f80fd5b8063d0f32b3414610313578063d119db4c14610340578063d14d5e5314610353575f80fd5b80638da5cb5b146102b4578063a44d0e59146102df578063a9190641146102e7578063b383223c146102f0578063b7aa0231146102f8578063cb3e1c801461030b575f80fd5b80636c9940071161012a5780636c994007146101e05780636cdedf4714610242578063745d5e6d146102555780637b05ea6e1461025d578063810a30ce14610270578063817c896614610294575f80fd5b806306fa15a714610171578063084fa851146101ca5780631070a513146101e057806313a155ea146101e85780634202d214146101fd578063536fff6c14610220575b5f80fd5b6101a561017f3660046109db565b5f6020819052908152604090208054600182015460028301546003909301549192909184565b6040805194855260208501939093529183015260608201526080015b60405180910390f35b6101d2600281565b6040519081526020016101c1565b6101d2600a81565b6101fb6101f63660046109db565b610388565b005b61021061020b3660046109db565b61045f565b60405190151581526020016101c1565b61021061022e3660046109db565b60016020525f908152604090205460ff1681565b6101fb6102503660046109db565b61049f565b6101d2600581565b6101fb61026b3660046109fb565b610510565b61028361027e3660046109db565b610667565b6040516101c1959493929190610a57565b6102a76102a23660046109db565b6106e0565b6040516101c19190610a87565b6002546102c7906001600160a01b031681565b6040516001600160a01b0390911681526020016101c1565b6101d2600f81565b6101d26103e981565b6101d2600381565b6101fb6103063660046109db565b610707565b6101d2600181565b6102106103213660046109fb565b6001600160a01b03919091165f90815260208190526040902054101590565b6101fb61034e3660046109fb565b610779565b6101fb6103613660046109db565b61090c565b6101d2606581565b6101d26101f581565b6101d261138981565b6101d2601481565b6002546001600160a01b031633146103bb5760405162461bcd60e51b81526004016103b290610a95565b60405180910390fd5b6001600160a01b0381166104115760405162461bcd60e51b815260206004820181905260248201527f52657075746174696f6e53636f72653a20696e76616c6964206164647265737360448201526064016103b2565b6001600160a01b0381165f818152600160208190526040808320805460ff1916909217909155517feb1b9b92e50b7f88f9ff25d56765095ac6e91540eee214906f4036a908ffbdef9190a250565b6001600160a01b0381165f9081526020819052604081206001015480820361048957505f92915050565b62278d006104978242610af1565b109392505050565b335f9081526001602052604090205460ff16806104c657506002546001600160a01b031633145b6104e25760405162461bcd60e51b81526004016103b290610b04565b6001600160a01b0381165f90815260208190526040812060030180549161050883610b4d565b919050555050565b335f9081526001602052604090205460ff168061053757506002546001600160a01b031633145b6105535760405162461bcd60e51b81526004016103b290610b04565b6001600160a01b0382166105795760405162461bcd60e51b81526004016103b290610b65565b5f81116105985760405162461bcd60e51b81526004016103b290610baa565b6001600160a01b0382165f908152602081905260409020548181106105e9576001600160a01b0383165f90815260208190526040812080548492906105de908490610af1565b909155506106029050565b6001600160a01b0383165f908152602081905260408120555b6001600160a01b0383167f2488bbc4ed2cebd5def453c0d0219e59be76fae7629409609641e46d2d6eebe561063684610bf8565b6001600160a01b0386165f9081526020818152604091829020548251938452908301520160405180910390a2505050565b6001600160a01b0381165f90815260208181526040808320815160808101835281548082526001830154948201949094526002820154928101929092526003015460608201528291829182918291906106bf886106e0565b60208301516040840151606090940151929a91995097509195509350915050565b6001600160a01b0381165f9081526020819052604081205461070190610975565b92915050565b6002546001600160a01b031633146107315760405162461bcd60e51b81526004016103b290610a95565b6001600160a01b0381165f81815260016020526040808220805460ff19169055517fc3803387881faad271c47728894e3e36fac830ffc8602ca6fc07733cbda775809190a250565b335f9081526001602052604090205460ff16806107a057506002546001600160a01b031633145b6107bc5760405162461bcd60e51b81526004016103b290610b04565b6001600160a01b0382166107e25760405162461bcd60e51b81526004016103b290610b65565b5f81116108015760405162461bcd60e51b81526004016103b290610baa565b6001600160a01b0382165f9081526020819052604081208054918391906108288385610c12565b90915550506001600160a01b0383165f8181526020818152604091829020426001820155548251868152918201527f2488bbc4ed2cebd5def453c0d0219e59be76fae7629409609641e46d2d6eebe5910160405180910390a25f61088b846106e0565b90505f61089783610975565b90508060048111156108ab576108ab610a23565b8260048111156108bd576108bd610a23565b111561090557846001600160a01b03167fa49b8576e012f713baa7dceadb7d709aaec8773b498ecfe582d8b9c0c8fd074f836040516108fc9190610a87565b60405180910390a25b5050505050565b335f9081526001602052604090205460ff168061093357506002546001600160a01b031633145b61094f5760405162461bcd60e51b81526004016103b290610b04565b6001600160a01b0381165f90815260208190526040812060020180549161050883610b4d565b5f611389821061098757506004919050565b6103e9821061099857506003919050565b6101f582106109a957506002919050565b606582106109b957506001919050565b505f919050565b80356001600160a01b03811681146109d6575f80fd5b919050565b5f602082840312156109eb575f80fd5b6109f4826109c0565b9392505050565b5f8060408385031215610a0c575f80fd5b610a15836109c0565b946020939093013593505050565b634e487b7160e01b5f52602160045260245ffd5b60058110610a5357634e487b7160e01b5f52602160045260245ffd5b9052565b85815260a08101610a6b6020830187610a37565b8460408301528360608301528260808301529695505050505050565b602081016107018284610a37565b60208082526028908201527f52657075746174696f6e53636f72653a2063616c6c6572206973206e6f74207460408201526734329037bbb732b960c11b606082015260800190565b634e487b7160e01b5f52601160045260245ffd5b8181038181111561070157610701610add565b60208082526029908201527f52657075746174696f6e53636f72653a2063616c6c6572206973206e6f7420616040820152681d5d1a1bdc9a5e995960ba1b606082015260800190565b5f60018201610b5e57610b5e610add565b5060010190565b60208082526025908201527f52657075746174696f6e53636f72653a20696e76616c69642075736572206164604082015264647265737360d81b606082015260800190565b6020808252602e908201527f52657075746174696f6e53636f72653a20616d6f756e74206d7573742062652060408201526d067726561746572207468616e20360941b606082015260800190565b5f600160ff1b8201610c0c57610c0c610add565b505f0390565b8082018082111561070157610701610add56fea2646970667358221220d20cbbbae7911672933ac1981d01f8c5a5ee75d14f5b967d803dcf200807d6f264736f6c63430008180033",
  "linkReferences": {},
  "deployedLinkReferences": {}
}