{
  "_format": "hh-sol-artifact-1",
  "contractName": "VerificationServiceV2",
  "sourceName": "contracts/VerificationServiceV2.sol",
  "abi": [
    {
      "inputs": [
        {
          "internalType": "address",
          "name": "_identityManager",
          "type": "address"
        },
        {
          "internalType": "address",
          "name": "_reputationScore",
          "type": "address"
        },
        {
          "internalType": "address",
          "name": "_credentialNFT",
          "type": "address"
        }
      ],
      "stateMutability": "nonpayable",
      "type": "constructor"
    },
    {
      "inputs": [],
      "name": "HandlesAlreadySavedForRequestID",
      "type": "error"
    },
    {
      "inputs": [],
      "name": "InvalidKMSSignatures",
      "type": "error"
    },
    {
      "inputs": [],
      "name": "NoHandleFoundForRequestID",
      "type": "error"
    },
    {
      "anonymous": false,
      "inputs": [
        {
          "indexed": true,
          "internalType": "uint256",
          "name": "requestID",
          "type": "uint256"
        }
      ],
      "name": "DecryptionFulfilled",
      "type": "event"
    },
    {
      "anonymous": false,
      "inputs": [
        {
          "indexed": true,
          "internalType": "uint256",
          "name": "requestId",
          "type": "uint256"
        },
        {
          "indexed": true,
          "internalType": "uint256",
          "name": "taskId",
          "type": "uint256"
        }
      ],
      "name": "DecryptionRequested",
      "type": "event"
    },
    {
      "anonymous": false,
      "inputs": [
        {
          "indexed": true,
          "internalType": "address",
          "name": "user",
          "type": "address"
        },
        {
          "indexed": false,
          "internalType": "uint256",
          "name": "amount",
          "type": "uint256"
        }
      ],
      "name": "ReputationAwarded",
      "type": "event"
    },
    {
      "anonymous": false,
      "inputs": [
        {
          "indexed": true,
          "internalType": "uint256",
          "name": "taskId",
          "type": "uint256"
        },
        {
          "indexed": true,
          "internalType": "address",
          "name": "user",
          "type": "address"
        },
        {
          "indexed": false,
          "internalType": "bool",
          "name": "passed",
          "type": "bool"
        }
      ],
      "name": "VerificationCompleted",
      "type": "event"
    },
    {
      "anonymous": false,
      "inputs": [
        {
          "indexed": true,
          "internalType": "uint256",
          "name": "taskId",
          "type": "uint256"
        },
        {
          "indexed": true,
          "internalType": "address",
          "name": "user",
          "type": "address"
        },
        {
          "indexed": false,
          "internalType": "uint256",
          "name": "decryptionRequestId",
          "type": "uint256"
        }
      ],
      "name": "VerificationRequested",
      "type": "event"
    },
    {
      "inputs": [],
      "name": "credentialNFT",
      "outputs": [
        {
          "internalType": "contract CredentialNFT",
          "name": "",
          "type": "address"
        }
      ],
      "stateMutability": "view",
      "type": "function"
    },
    {
      "inputs": [
        {
          "internalType": "uint256",
          "name": "",
          "type": "uint256"
        }
      ],
      "name": "decryptionRequestToTask",
      "outputs": [
        {
          "internalType": "uint256",
          "name": "",
          "type": "uint256"
        }
      ],
      "stateMutability": "view",
      "type": "function"
    },
    {
      "inputs": [
        {
          "internalType": "uint256",
          "name": "requestId",
          "type": "uint256"
        }
      ],
      "name": "getTaskIdByDecryptionRequest",
      "outputs": [
        {
          "internalType": "uint256",
          "name": "",
          "type": "uint256"
        }
      ],
      "stateMutability": "view",
      "type": "function"
    },
    {
      "inputs": [
        {
          "internalType": "address",
          "name": "user",
          "type": "address"
        }
      ],
      "name": "getUserVerificationCount",
      "outputs": [
        {
          "internalType": "uint256",
          "name": "",
          "type": "uint256"
        }
      ],
      "stateMutability": "view",
      "type": "function"
    },
    {
      "inputs": [
        {
          "internalType": "uint256",
          "name": "taskId",
          "type": "uint256"
        }
      ],
      "name": "getVerificationTask",
      "outputs": [
        {
          "components": [
            {
              "internalType": "address",
              "name": "user",
              "type": "address"
            },
            {
              "internalType": "uint32",
              "name": "minAssetBalance",
              "type": "uint32"
            },
            {
              "internalType": "uint32",
              "name": "minNFTCount",
              "type": "uint32"
            },
            {
              "internalType": "uint32",
              "name": "minAccountAge",
              "type": "uint32"
            },
            {
              "internalType": "uint32",
              "name": "minTxCount",
              "type": "uint32"
            },
            {
              "internalType": "bool",
              "name": "completed",
              "type": "bool"
            },
            {
              "internalType": "bool",
              "name": "passed",
              "type": "bool"
            },
            {
              "internalType": "uint256",
              "name": "createdAt",
              "type": "uint256"
            },
            {
              "internalType": "uint256",
              "name": "decryptionRequestId",
              "type": "uint256"
            }
          ],
          "internalType": "struct VerificationServiceV2.VerificationTask",
          "name": "",
          "type": "tuple"
        }
      ],
      "stateMutability": "view",
      "type": "function"
    },
    {
      "inputs": [],
      "name": "identityManager",
      "outputs": [
        {
          "internalType": "contract IdentityProofManager",
          "name": "",
          "type": "address"
        }
      ],
      "stateMutability": "view",
      "type": "function"
    },
    {
      "inputs": [
        {
          "internalType": "uint256",
          "name": "taskId",
          "type": "uint256"
        }
      ],
      "name": "isTaskCompleted",
      "outputs": [
        {
          "internalType": "bool",
          "name": "",
          "type": "bool"
        }
      ],
      "stateMutability": "view",
      "type": "function"
    },
    {
      "inputs": [
        {
          "internalType": "uint256",
          "name": "taskId",
          "type": "uint256"
        }
      ],
      "name": "isTaskPassed",
      "outputs": [
        {
          "internalType": "bool",
          "name": "",
          "type": "bool"
        }
      ],
      "stateMutability": "view",
      "type": "function"
    },
    {
      "inputs": [
        {
          "internalType": "address",
          "name": "user",
          "type": "address"
        },
        {
          "internalType": "uint256",
          "name": "minScore",
          "type": "uint256"
        }
      ],
      "name": "meetsReputationRequirement",
      "outputs": [
        {
          "internalType": "bool",
          "name": "",
          "type": "bool"
        }
      ],
      "stateMutability": "view",
      "type": "function"
    },
    {
      "inputs": [],
      "name": "owner",
      "outputs": [
        {
          "internalType": "address",
          "name": "",
          "type": "address"
        }
      ],
      "stateMutability": "view",
      "type": "function"
    },
    {
      "inputs": [],
      "name": "protocolId",
      "outputs": [
        {
          "internalType": "uint256",
          "name": "",
          "type": "uint256"
        }
      ],
      "stateMutability": "pure",
      "type": "function"
    },
    {
      "inputs": [],
      "name": "reputationScore",
      "outputs": [
        {
          "internalType": "contract ReputationScore",
          "name": "",
          "type": "address"
        }
      ],
      "stateMutability": "view",
      "type": "function"
    },
    {
      "inputs": [
        {
          "internalType": "uint32",
          "name": "minAssetBalance",
          "type": "uint32"
        },
        {
          "internalType": "uint32",
          "name": "minNFTCount",
          "type": "uint32"
        },
        {
          "internalType": "uint32",
          "name": "minAccountAge",
          "type": "uint32"
        },
        {
          "internalType": "uint32",
          "name": "minTxCount",
          "type": "uint32"
        }
      ],
      "name": "requestVerification",
      "outputs": [
        {
          "internalType": "uint256",
          "name": "taskId",
          "type": "uint256"
        }
      ],
      "stateMutability": "nonpayable",
      "type": "function"
    },
    {
      "inputs": [],
      "name": "taskCounter",
      "outputs": [
        {
          "internalType": "uint256",
          "name": "",
          "type": "uint256"
        }
      ],
      "stateMutability": "view",
      "type": "function"
    },
    {
      "inputs": [
        {
          "internalType": "address",
          "name": "newCredentialNFT",
          "type": "address"
        }
      ],
      "name": "updateCredentialNFT",
      "outputs": [],
      "stateMutability": "nonpayable",
      "type": "function"
    },
    {
      "inputs": [
        {
          "internalType": "address",
          "name": "newManager",
          "type": "address"
        }
      ],
      "name": "updateIdentityManager",
      "outputs": [],
      "stateMutability": "nonpayable",
      "type": "function"
    },
    {
      "inputs": [
        {
          "internalType": "address",
          "name": "newScore",
          "type": "address"
        }
      ],
      "name": "updateReputationScore",
      "outputs": [],
      "stateMutability": "nonpayable",
      "type": "function"
    },
    {
      "inputs": [
        {
          "internalType": "address",
          "name": "",
          "type": "address"
        }
      ],
      "name": "userVerificationCount",
      "outputs": [
        {
          "internalType": "uint256",
          "name": "",
          "type": "uint256"
        }
      ],
      "stateMutability": "view",
      "type": "function"
    },
    {
      "inputs": [
        {
          "internalType": "uint256",
          "name": "requestId",
          "type": "uint256"
        },
        {
          "internalType": "bytes",
          "name": "cleartexts",
          "type": "bytes"
        },
        {
          "internalType": "bytes",
          "name": "decryptionProof",
          "type": "bytes"
        }
      ],
      "name": "verificationCallback",
      "outputs": [],
      "stateMutability": "nonpayable",
      "type": "function"
    },
    {
      "inputs": [
        {
          "internalType": "uint256",
          "name": "",
          "type": "uint256"
        }
      ],
      "name": "verificationTasks",
      "outputs": [
        {
          "internalType": "address",
          "name": "user",
          "type": "address"
        },
        {
          "internalType": "uint32",
          "name": "minAssetBalance",
          "type": "uint32"
        },
        {
          "internalType": "uint32",
          "name": "minNFTCount",
          "type": "uint32"
        },
        {
          "internalType": "uint32",
          "name": "minAccountAge",
          "type": "uint32"
        },
        {
          "internalType": "uint32",
          "name": "minTxCount",
          "type": "uint32"
        },
        {
          "internalType": "bool",
          "name": "completed",
          "type": "bool"
        },
        {
          "internalType": "bool",
          "name": "passed",
          "type": "bool"
        },
        {
          "internalType": "uint256",
          "name": "createdAt",
          "type": "uint256"
        },
        {
          "internalType": "uint256",
          "name": "decryptionRequestId",
          "type": "uint256"
        }
      ],
      "stateMutability": "view",
      "type": "function"
    }
  ],
  "bytecode": "0x608060405234801562000010575f80fd5b50604051620022aa380380620022aa833981016040819052620000339162000366565b620001af620000d3604080516080810182525f808252602082018190529181018290526060810191909152506040805160808101825273687820221192c5b662b25367f70076a37bc79b6c815273848b0066793bcc60346da1f49049357399b8d595602082015273a02cda4ca3a71d7c46997716f4283aa851c2881291810191909152731364cbbf2cdf5032c47d8226a6f6fbd2afcdacac606082015290565b80517f9e7b61f58c47dc699ac88507c4f5bb9f121c03808c5676a8078fe583e464970080546001600160a01b03199081166001600160a01b039384161790915560208301517f9e7b61f58c47dc699ac88507c4f5bb9f121c03808c5676a8078fe583e46497018054831691841691909117905560408301517f9e7b61f58c47dc699ac88507c4f5bb9f121c03808c5676a8078fe583e46497028054831691841691909117905560608301517f9e7b61f58c47dc699ac88507c4f5bb9f121c03808c5676a8078fe583e46497038054909216921691909117905550565b6001600160a01b038316620002215760405162461bcd60e51b815260206004820152602d60248201527f566572696669636174696f6e536572766963653a20696e76616c69642069646560448201526c373a34ba3c9036b0b730b3b2b960991b60648201526084015b60405180910390fd5b6001600160a01b0382166200028f5760405162461bcd60e51b815260206004820152602d60248201527f566572696669636174696f6e536572766963653a20696e76616c69642072657060448201526c75746174696f6e2073636f726560981b606482015260840162000218565b6001600160a01b038116620002fb5760405162461bcd60e51b815260206004820152602b60248201527f566572696669636174696f6e536572766963653a20696e76616c69642063726560448201526a19195b9d1a585b0813919560aa1b606482015260840162000218565b5f80546001600160a01b039485166001600160a01b03199182161790915560018054938516938216939093179092556002805491909316908216179091556003805490911633179055620003ad565b80516001600160a01b038116811462000361575f80fd5b919050565b5f805f6060848603121562000379575f80fd5b62000384846200034a565b925062000394602085016200034a565b9150620003a4604085016200034a565b90509250925092565b611eef80620003bb5f395ff3fe608060405234801561000f575f80fd5b5060043610610125575f3560e01c806375ba7cdd116100a9578063b1dc11cb1161006e578063b1dc11cb14610392578063d6e8dc89146103bf578063da1f12ab14610498578063e600fc00146104a0578063fcd4b868146104c8575f80fd5b806375ba7cdd1461032757806377ec974d1461033a5780638da5cb5b1461034d578063934fcd1b14610360578063aeeed94914610373575f80fd5b806353bd3f45116100ef57806353bd3f45146102bb57806358671730146102ce57806358c83c6c146102d757806360a7fc1f146102ea57806375495e9014610315575f80fd5b8062068fe814610129578062ca3d291461015b57806304c2e3db14610264578063052f8566146102795780635025dc151461029c575b5f80fd5b610148610137366004611823565b60076020525f908152604090205481565b6040519081526020015b60405180910390f35b61025761016936600461183c565b60408051610120810182525f80825260208201819052918101829052606081018290526080810182905260a0810182905260c0810182905260e08101829052610100810191909152505f9081526004602090815260409182902082516101208101845281546001600160a01b038116825263ffffffff600160a01b8204811694830194909452600160c01b8104841694820194909452600160e01b909304821660608401526001810154918216608084015260ff64010000000083048116151560a0850152600160281b909204909116151560c0830152600281015460e08301526003015461010082015290565b6040516101529190611853565b610277610272366004611823565b6104db565b005b61028c610287366004611902565b610556565b6040519015158152602001610152565b6101486102aa36600461183c565b60056020525f908152604090205481565b61028c6102c936600461183c565b6105d2565b61014860065481565b6102776102e5366004611823565b610669565b6001546102fd906001600160a01b031681565b6040516001600160a01b039091168152602001610152565b5f546102fd906001600160a01b031681565b61014861033536600461193d565b6106db565b610277610348366004611a2b565b610a8e565b6003546102fd906001600160a01b031681565b6002546102fd906001600160a01b031681565b61014861038136600461183c565b5f9081526005602052604090205490565b61028c6103a036600461183c565b5f90815260046020526040902060010154640100000000900460ff1690565b6104396103cd36600461183c565b60046020525f908152604090208054600182015460028301546003909301546001600160a01b0383169363ffffffff600160a01b8504811694600160c01b8104821694600160e01b9091048216939181169260ff6401000000008304811693600160281b909304169189565b604080516001600160a01b03909a168a5263ffffffff98891660208b0152968816968901969096529386166060880152949091166080860152151560a085015291151560c084015260e083019190915261010082015261012001610152565b612711610148565b6101486104ae366004611823565b6001600160a01b03165f9081526007602052604090205490565b6102776104d6366004611823565b610ebf565b6003546001600160a01b0316331461050e5760405162461bcd60e51b815260040161050590611a93565b60405180910390fd5b6001600160a01b0381166105345760405162461bcd60e51b815260040161050590611adf565b600280546001600160a01b0319166001600160a01b0392909216919091179055565b60015460405163343ccacd60e21b81526001600160a01b038481166004830152602482018490525f92169063d0f32b3490604401602060405180830381865afa1580156105a5573d5f803e3d5ffd5b505050506040513d601f19601f820116820180604052508101906105c99190611b23565b90505b92915050565b5f81815260046020526040812060010154640100000000900460ff1661064a5760405162461bcd60e51b815260206004820152602760248201527f566572696669636174696f6e536572766963653a207461736b206e6f7420636f6044820152661b5c1b195d195960ca1b6064820152608401610505565b505f90815260046020526040902060010154600160281b900460ff1690565b6003546001600160a01b031633146106935760405162461bcd60e51b815260040161050590611a93565b6001600160a01b0381166106b95760405162461bcd60e51b815260040161050590611adf565b600180546001600160a01b0319166001600160a01b0392909216919091179055565b5f80546040516350681a9360e11b81523360048201526001600160a01b039091169063a0d0352690602401602060405180830381865afa158015610721573d5f803e3d5ffd5b505050506040513d601f19601f820116820180604052508101906107459190611b23565b6107a25760405162461bcd60e51b815260206004820152602860248201527f566572696669636174696f6e536572766963653a2075736572206e6f7420726560448201526719da5cdd195c995960c21b6064820152608401610505565b60068054905f6107b183611b5d565b9190505590505f6107c23387610f30565b90505f6107cf3387610fbe565b90505f6107dc3387610ff0565b90505f6107e93387611022565b90505f6107f68585611054565b90505f6108038484611054565b90505f6108108383611054565b6040805160018082528183019092529192505f91906020808301908036833701905050905081815f8151811061084857610848611b75565b60209081029190910101525f610865826377ec974d60e01b611082565b9050604051806101200160405280336001600160a01b031681526020018f63ffffffff1681526020018e63ffffffff1681526020018d63ffffffff1681526020018c63ffffffff1681526020015f151581526020015f151581526020014281526020018281525060045f8c81526020019081526020015f205f820151815f015f6101000a8154816001600160a01b0302191690836001600160a01b031602179055506020820151815f0160146101000a81548163ffffffff021916908363ffffffff1602179055506040820151815f0160186101000a81548163ffffffff021916908363ffffffff1602179055506060820151815f01601c6101000a81548163ffffffff021916908363ffffffff1602179055506080820151816001015f6101000a81548163ffffffff021916908363ffffffff16021790555060a08201518160010160046101000a81548160ff02191690831515021790555060c08201518160010160056101000a81548160ff02191690831515021790555060e0820151816002015561010082015181600301559050508960055f8381526020019081526020015f2081905550336001600160a01b03168a7fdeb7003ffed8f3df9845e492fd4d38d5871c0b5215d4ce4d14d144e600f7e87a83604051610a4991815260200190565b60405180910390a36040518a9082907f81bca54e6c48c44ec959a5581796be73005cbde51156a29bae607f52e9baa16c905f90a3505050505050505050949350505050565b610a9983838361108e565b5f82806020019051810190610aae9190611b23565b5f85815260056020908152604080832054808452600490925290912060018101549293509091640100000000900460ff1615610b405760405162461bcd60e51b815260206004820152602b60248201527f566572696669636174696f6e536572766963653a207461736b20616c7265616460448201526a1e4818dbdb5c1b195d195960aa1b6064820152608401610505565b80546001600160a01b0316610ba85760405162461bcd60e51b815260206004820152602860248201527f566572696669636174696f6e536572766963653a207461736b20646f6573206e6044820152671bdd08195e1a5cdd60c21b6064820152608401610505565b600181018054841515600160281b0265ffff00000000199091161764010000000017905580546040516001600160a01b039091169083907f10f21647cf3227d5f824a788d1f9e9cd0753f0bdd61a6ec6165abad2a54f4fb290610c1090871515815260200190565b60405180910390a38215610eb75760015460408051631070a51360e01b815290515f926001600160a01b031691631070a5139160048083019260209291908290030181865afa158015610c65573d5f803e3d5ffd5b505050506040513d601f19601f82011682018060405250810190610c899190611b89565b600154835460405163344676d360e21b81526001600160a01b03918216600482015260248101849052929350169063d119db4c906044015f604051808303815f87803b158015610cd7575f80fd5b505af1158015610ce9573d5f803e3d5ffd5b5050600154845460405163d14d5e5360e01b81526001600160a01b0391821660048201529116925063d14d5e5391506024015f604051808303815f87803b158015610d32575f80fd5b505af1158015610d44573d5f803e3d5ffd5b505083546001600160a01b03165f908152600760205260408120805493509150610d6d83611b5d565b909155505081546040518281526001600160a01b03909116907f99a3d10b89b07674fcd46bd1678cb120c3c0e2bdd33ab6c1ed9907208907a3219060200160405180910390a260025482546001600160a01b0391821691633dc65fba91165f80610dd6886110f7565b8754610dee90600160a01b900463ffffffff166110f7565b8854610e0690600160c01b900463ffffffff166110f7565b8954610e1e90600160e01b900463ffffffff166110f7565b60018b0154610e329063ffffffff166110f7565b604051602001610e46959493929190611bdd565b6040516020818303038152906040526040518563ffffffff1660e01b8152600401610e749493929190611d02565b6020604051808303815f875af1158015610e90573d5f803e3d5ffd5b505050506040513d601f19601f82011682018060405250810190610eb49190611b89565b50505b505050505050565b6003546001600160a01b03163314610ee95760405162461bcd60e51b815260040161050590611a93565b6001600160a01b038116610f0f5760405162461bcd60e51b815260040161050590611adf565b5f80546001600160a01b0319166001600160a01b0392909216919091179055565b5f805460405163041bf78d60e51b81526001600160a01b0385811660048301528392169063837ef1a0906024015b602060405180830381865afa158015610f79573d5f803e3d5ffd5b505050506040513d601f19601f82011682018060405250810190610f9d9190611b89565b90505f610fa9846111fc565b9050610fb5828261120e565b95945050505050565b5f8054604051632b495c8960e01b81526001600160a01b03858116600483015283921690632b495c8990602401610f5e565b5f805460405163058a4c2960e41b81526001600160a01b038581166004830152839216906358a4c29090602401610f5e565b5f80546040516307b5c22960e51b81526001600160a01b0385811660048301528392169063f6b8452090602401610f5e565b5f82611066576110635f61123c565b92505b81611077576110745f61123c565b91505b6105c983835f611257565b5f6105c983835f611327565b5f61109884611442565b90505f6110a6828585611513565b9050806110c65760405163cf6c44e960e01b815260040160405180910390fd5b60405185907f1af0453083661051f6e56e5c070792320652e612154bf9af8637bb1e7655b99d905f90a25050505050565b6060815f0361111d5750506040805180820190915260018152600360fc1b602082015290565b815f5b8115611146578061113081611b5d565b915061113f9050600a83611d53565b9150611120565b5f8167ffffffffffffffff8111156111605761116061198e565b6040519080825280601f01601f19166020018201604052801561118a576020820181803683370190505b5090505b84156111f45761119f600183611d66565b91506111ac600a86611d79565b6111b7906030611d8c565b60f81b8183815181106111cc576111cc611b75565b60200101906001600160f81b03191690815f1a9053506111ed600a86611d53565b945061118e565b949350505050565b5f6105cc8263ffffffff1660046115ec565b5f826112205761121d5f6111fc565b92505b816112315761122e5f6111fc565b91505b6105c983835f61168e565b5f6105cc8261124b575f61124e565b60015b60ff165f6115ec565b5f80821561126a5750600160f81b61126d565b505f5b7f9e7b61f58c47dc699ac88507c4f5bb9f121c03808c5676a8078fe583e46497015460405163d99882d560e01b815260048101879052602481018690526001600160f81b0319831660448201525f80516020611e9a833981519152916001600160a01b03169063d99882d5906064015b6020604051808303815f875af11580156112f9573d5f803e3d5ffd5b505050506040513d601f19601f8201168201806040525081019061131d9190611b89565b9695505050505050565b7f878245876662ba28a480c5ea71726db859fb50222b0a3d7cbbc21cfa336faf0080545f80516020611e9a8339815191528054604051637d6e912360e11b81529293926001600160a01b039091169063fadd22469061138a908990600401611dd9565b5f604051808303815f87803b1580156113a1575f80fd5b505af11580156113b3573d5f803e3d5ffd5b5050506002820154604051633263b83b60e01b81526001600160a01b039091169150633263b83b9086906113ef9087908b908b90600401611deb565b5f604051808303818588803b158015611406575f80fd5b505af1158015611418573d5f803e3d5ffd5b50505050506114278387611718565b8154825f61143483611b5d565b919050555050509392505050565b5f8181527f878245876662ba28a480c5ea71726db859fb50222b0a3d7cbbc21cfa336faf0160205260408120546060917f878245876662ba28a480c5ea71726db859fb50222b0a3d7cbbc21cfa336faf009190036114b35760405163d66ca67560e01b815260040160405180910390fd5b5f8381526001820160209081526040918290208054835181840281018401909452808452909183018282801561150657602002820191905f5260205f20905b8154815260200190600101908083116114f2575b5050505050915050919050565b5f80835160206115239190611d8c565b61152e906020611d8c565b90505f8482604051602001611544929190611e1c565b60405160208183030381529060405290505f61156a5f80516020611e9a83398151915290565b60038101546040516378542ead60e01b81529192506001600160a01b0316906378542ead906115a1908a9086908a90600401611e3d565b6020604051808303815f875af11580156115bd573d5f803e3d5ffd5b505050506040513d601f19601f820116820180604052508101906115e19190611b23565b979650505050505050565b7f9e7b61f58c47dc699ac88507c4f5bb9f121c03808c5676a8078fe583e464970154604051639cd07acb60e01b81525f915f80516020611e9a833981519152916001600160a01b0390911690639cd07acb9061164e9087908790600401611e75565b6020604051808303815f875af115801561166a573d5f803e3d5ffd5b505050506040513d601f19601f820116820180604052508101906111f49190611b89565b5f8082156116a15750600160f81b6116a4565b505f5b7f9e7b61f58c47dc699ac88507c4f5bb9f121c03808c5676a8078fe583e464970154604051631391547f60e01b815260048101879052602481018690526001600160f81b0319831660448201525f80516020611e9a833981519152916001600160a01b031690631391547f906064016112dd565b5f8281527f878245876662ba28a480c5ea71726db859fb50222b0a3d7cbbc21cfa336faf0160205260409020547f878245876662ba28a480c5ea71726db859fb50222b0a3d7cbbc21cfa336faf00901561178557604051633f06d22b60e01b815260040160405180910390fd5b5f838152600182016020908152604090912083516117a5928501906117ab565b50505050565b828054828255905f5260205f209081019282156117e4579160200282015b828111156117e45782518255916020019190600101906117c9565b506117f09291506117f4565b5090565b5b808211156117f0575f81556001016117f5565b80356001600160a01b038116811461181e575f80fd5b919050565b5f60208284031215611833575f80fd5b6105c982611808565b5f6020828403121561184c575f80fd5b5035919050565b81516001600160a01b0316815260208083015163ffffffff169082015260408083015161012083019161188d9084018263ffffffff169052565b5060608301516118a5606084018263ffffffff169052565b5060808301516118bd608084018263ffffffff169052565b5060a08301516118d160a084018215159052565b5060c08301516118e560c084018215159052565b5060e083015160e083015261010080840151818401525092915050565b5f8060408385031215611913575f80fd5b61191c83611808565b946020939093013593505050565b803563ffffffff8116811461181e575f80fd5b5f805f8060808587031215611950575f80fd5b6119598561192a565b93506119676020860161192a565b92506119756040860161192a565b91506119836060860161192a565b905092959194509250565b634e487b7160e01b5f52604160045260245ffd5b5f82601f8301126119b1575f80fd5b813567ffffffffffffffff808211156119cc576119cc61198e565b604051601f8301601f19908116603f011681019082821181831017156119f4576119f461198e565b81604052838152866020858801011115611a0c575f80fd5b836020870160208301375f602085830101528094505050505092915050565b5f805f60608486031215611a3d575f80fd5b83359250602084013567ffffffffffffffff80821115611a5b575f80fd5b611a67878388016119a2565b93506040860135915080821115611a7c575f80fd5b50611a89868287016119a2565b9150509250925092565b6020808252602c908201527f566572696669636174696f6e536572766963653a2063616c6c6572206973206e60408201526b37ba103a34329037bbb732b960a11b606082015260800190565b60208082526024908201527f566572696669636174696f6e536572766963653a20696e76616c6964206164646040820152637265737360e01b606082015260800190565b5f60208284031215611b33575f80fd5b81518015158114611b42575f80fd5b9392505050565b634e487b7160e01b5f52601160045260245ffd5b5f60018201611b6e57611b6e611b49565b5060010190565b634e487b7160e01b5f52603260045260245ffd5b5f60208284031215611b99575f80fd5b5051919050565b5f5b83811015611bba578181015183820152602001611ba2565b50505f910152565b5f8151611bd3818560208601611ba0565b9290920192915050565b7f5665726966696564204964656e74697479202d205461736b202300000000000081525f8651611c1481601a850160208b01611ba0565b69010169020b9b9b2ba1d160b51b601a918401918201528651611c3e816024840160208b01611ba0565b660161027232a1d160cd1b602492909101918201528551611c6681602b840160208a01611ba0565b601a81830101915050660161020b3b29d160cd1b60118201528451611c92816018840160208901611ba0565b600a8183010191505065016102a3c1d160d51b600e820152611cb76014820185611bc2565b98975050505050505050565b634e487b7160e01b5f52602160045260245ffd5b5f8151808452611cee816020860160208601611ba0565b601f01601f19169290920160200192915050565b6001600160a01b03851681525f60058510611d1f57611d1f611cc3565b8460208301528360408301526080606083015261131d6080830184611cd7565b634e487b7160e01b5f52601260045260245ffd5b5f82611d6157611d61611d3f565b500490565b818103818111156105cc576105cc611b49565b5f82611d8757611d87611d3f565b500690565b808201808211156105cc576105cc611b49565b5f815180845260208085019450602084015f5b83811015611dce57815187529582019590820190600101611db2565b509495945050505050565b602081525f6105c96020830184611d9f565b838152606060208201525f611e036060830185611d9f565b905063ffffffff60e01b83166040830152949350505050565b5f8351611e2d818460208801611ba0565b9190910191825250602001919050565b606081525f611e4f6060830186611d9f565b8281036020840152611e618186611cd7565b9050828103604084015261131d8185611cd7565b8281526040810160548310611e8c57611e8c611cc3565b826020830152939250505056fe9e7b61f58c47dc699ac88507c4f5bb9f121c03808c5676a8078fe583e4649700a2646970667358221220d537551cebaf4f95392b8716dfa98f0f27d01fd5e6f6aa196dd03d03a6fa2ee264736f6c63430008180033",
  "linkReferences": {},
  "deployedLinkReferences": {}
}