{
  "_format": "hh-sol-artifact-1",
  "contractName": "VerificationServiceV2",
  "sourceName": "contracts/VerificationServiceV2.sol",
  "abi": [
    {
      "inputs": [
        {
          "internalType": "address",
          "name": "_identityManager",
          "type": "address"
        },
        {
          "internalType": "address",
          "name": "_reputationScore",
          "type": "address"
        }
      ],
      "stateMutability": "nonpayable",
      "type": "constructor"
    },
    {
      "inputs": [],
      "name": "HandlesAlreadySavedForRequestID",
      "type": "error"
    },
    {
      "inputs": [],
      "name": "InvalidKMSSignatures",
      "type": "error"
    },
    {
      "inputs": [],
      "name": "NoHandleFoundForRequestID",
      "type": "error"
    },
    {
      "anonymous": false,
      "inputs": [
        {
          "indexed": true,
          "internalType": "uint256",
          "name": "requestID",
          "type": "uint256"
        }
      ],
      "name": "DecryptionFulfilled",
      "type": "event"
    },
    {
      "anonymous": false,
      "inputs": [
        {
          "indexed": true,
          "internalType": "address",
          "name": "user",
          "type": "address"
        },
        {
          "indexed": false,
          "internalType": "uint256",
          "name": "amount",
          "type": "uint256"
        }
      ],
      "name": "ReputationAwarded",
      "type": "event"
    },
    {
      "anonymous": false,
      "inputs": [
        {
          "indexed": true,
          "internalType": "uint256",
          "name": "taskId",
          "type": "uint256"
        },
        {
          "indexed": true,
          "internalType": "address",
          "name": "user",
          "type": "address"
        },
        {
          "indexed": false,
          "internalType": "bool",
          "name": "passed",
          "type": "bool"
        }
      ],
      "name": "VerificationCompleted",
      "type": "event"
    },
    {
      "anonymous": false,
      "inputs": [
        {
          "indexed": true,
          "internalType": "uint256",
          "name": "taskId",
          "type": "uint256"
        },
        {
          "indexed": true,
          "internalType": "address",
          "name": "user",
          "type": "address"
        },
        {
          "indexed": false,
          "internalType": "uint256",
          "name": "requestId",
          "type": "uint256"
        }
      ],
      "name": "VerificationRequested",
      "type": "event"
    },
    {
      "inputs": [
        {
          "internalType": "uint256",
          "name": "",
          "type": "uint256"
        }
      ],
      "name": "callbackCalled",
      "outputs": [
        {
          "internalType": "bool",
          "name": "",
          "type": "bool"
        }
      ],
      "stateMutability": "view",
      "type": "function"
    },
    {
      "inputs": [
        {
          "internalType": "address",
          "name": "user",
          "type": "address"
        }
      ],
      "name": "getUserVerificationCount",
      "outputs": [
        {
          "internalType": "uint256",
          "name": "",
          "type": "uint256"
        }
      ],
      "stateMutability": "view",
      "type": "function"
    },
    {
      "inputs": [
        {
          "internalType": "uint256",
          "name": "taskId",
          "type": "uint256"
        }
      ],
      "name": "getVerificationTask",
      "outputs": [
        {
          "components": [
            {
              "internalType": "address",
              "name": "user",
              "type": "address"
            },
            {
              "internalType": "uint32",
              "name": "minAssetBalance",
              "type": "uint32"
            },
            {
              "internalType": "uint32",
              "name": "minNFTCount",
              "type": "uint32"
            },
            {
              "internalType": "uint32",
              "name": "minAccountAge",
              "type": "uint32"
            },
            {
              "internalType": "uint32",
              "name": "minTxCount",
              "type": "uint32"
            },
            {
              "internalType": "bool",
              "name": "completed",
              "type": "bool"
            },
            {
              "internalType": "bool",
              "name": "passed",
              "type": "bool"
            },
            {
              "internalType": "uint256",
              "name": "createdAt",
              "type": "uint256"
            },
            {
              "internalType": "uint256",
              "name": "decryptionRequestId",
              "type": "uint256"
            }
          ],
          "internalType": "struct VerificationServiceV2.VerificationTask",
          "name": "",
          "type": "tuple"
        }
      ],
      "stateMutability": "view",
      "type": "function"
    },
    {
      "inputs": [],
      "name": "identityManager",
      "outputs": [
        {
          "internalType": "contract IdentityProofManager",
          "name": "",
          "type": "address"
        }
      ],
      "stateMutability": "view",
      "type": "function"
    },
    {
      "inputs": [
        {
          "internalType": "uint256",
          "name": "taskId",
          "type": "uint256"
        }
      ],
      "name": "isCallbackCalled",
      "outputs": [
        {
          "internalType": "bool",
          "name": "",
          "type": "bool"
        }
      ],
      "stateMutability": "view",
      "type": "function"
    },
    {
      "inputs": [
        {
          "internalType": "address",
          "name": "user",
          "type": "address"
        },
        {
          "internalType": "uint256",
          "name": "minScore",
          "type": "uint256"
        }
      ],
      "name": "meetsReputationRequirement",
      "outputs": [
        {
          "internalType": "bool",
          "name": "",
          "type": "bool"
        }
      ],
      "stateMutability": "view",
      "type": "function"
    },
    {
      "inputs": [],
      "name": "owner",
      "outputs": [
        {
          "internalType": "address",
          "name": "",
          "type": "address"
        }
      ],
      "stateMutability": "view",
      "type": "function"
    },
    {
      "inputs": [],
      "name": "protocolId",
      "outputs": [
        {
          "internalType": "uint256",
          "name": "",
          "type": "uint256"
        }
      ],
      "stateMutability": "pure",
      "type": "function"
    },
    {
      "inputs": [],
      "name": "reputationScore",
      "outputs": [
        {
          "internalType": "contract ReputationScore",
          "name": "",
          "type": "address"
        }
      ],
      "stateMutability": "view",
      "type": "function"
    },
    {
      "inputs": [
        {
          "internalType": "uint32",
          "name": "minAssetBalance",
          "type": "uint32"
        },
        {
          "internalType": "uint32",
          "name": "minNFTCount",
          "type": "uint32"
        },
        {
          "internalType": "uint32",
          "name": "minAccountAge",
          "type": "uint32"
        },
        {
          "internalType": "uint32",
          "name": "minTxCount",
          "type": "uint32"
        }
      ],
      "name": "requestVerification",
      "outputs": [
        {
          "internalType": "uint256",
          "name": "taskId",
          "type": "uint256"
        }
      ],
      "stateMutability": "nonpayable",
      "type": "function"
    },
    {
      "inputs": [],
      "name": "taskCounter",
      "outputs": [
        {
          "internalType": "uint256",
          "name": "",
          "type": "uint256"
        }
      ],
      "stateMutability": "view",
      "type": "function"
    },
    {
      "inputs": [
        {
          "internalType": "address",
          "name": "newManager",
          "type": "address"
        }
      ],
      "name": "updateIdentityManager",
      "outputs": [],
      "stateMutability": "nonpayable",
      "type": "function"
    },
    {
      "inputs": [
        {
          "internalType": "address",
          "name": "newScore",
          "type": "address"
        }
      ],
      "name": "updateReputationScore",
      "outputs": [],
      "stateMutability": "nonpayable",
      "type": "function"
    },
    {
      "inputs": [
        {
          "internalType": "address",
          "name": "",
          "type": "address"
        }
      ],
      "name": "userVerificationCount",
      "outputs": [
        {
          "internalType": "uint256",
          "name": "",
          "type": "uint256"
        }
      ],
      "stateMutability": "view",
      "type": "function"
    },
    {
      "inputs": [
        {
          "internalType": "uint256",
          "name": "requestId",
          "type": "uint256"
        },
        {
          "internalType": "bytes",
          "name": "cleartexts",
          "type": "bytes"
        },
        {
          "internalType": "bytes",
          "name": "decryptionProof",
          "type": "bytes"
        }
      ],
      "name": "verificationCallback",
      "outputs": [],
      "stateMutability": "nonpayable",
      "type": "function"
    },
    {
      "inputs": [
        {
          "internalType": "uint256",
          "name": "",
          "type": "uint256"
        }
      ],
      "name": "verificationTasks",
      "outputs": [
        {
          "internalType": "address",
          "name": "user",
          "type": "address"
        },
        {
          "internalType": "uint32",
          "name": "minAssetBalance",
          "type": "uint32"
        },
        {
          "internalType": "uint32",
          "name": "minNFTCount",
          "type": "uint32"
        },
        {
          "internalType": "uint32",
          "name": "minAccountAge",
          "type": "uint32"
        },
        {
          "internalType": "uint32",
          "name": "minTxCount",
          "type": "uint32"
        },
        {
          "internalType": "bool",
          "name": "completed",
          "type": "bool"
        },
        {
          "internalType": "bool",
          "name": "passed",
          "type": "bool"
        },
        {
          "internalType": "uint256",
          "name": "createdAt",
          "type": "uint256"
        },
        {
          "internalType": "uint256",
          "name": "decryptionRequestId",
          "type": "uint256"
        }
      ],
      "stateMutability": "view",
      "type": "function"
    }
  ],
  "bytecode": "0x608060405234801562000010575f80fd5b5060405162001d4a38038062001d4a8339810160408190526200003391620002f0565b620001af620000d3604080516080810182525f808252602082018190529181018290526060810191909152506040805160808101825273687820221192c5b662b25367f70076a37bc79b6c815273848b0066793bcc60346da1f49049357399b8d595602082015273a02cda4ca3a71d7c46997716f4283aa851c2881291810191909152731364cbbf2cdf5032c47d8226a6f6fbd2afcdacac606082015290565b80517f9e7b61f58c47dc699ac88507c4f5bb9f121c03808c5676a8078fe583e464970080546001600160a01b03199081166001600160a01b039384161790915560208301517f9e7b61f58c47dc699ac88507c4f5bb9f121c03808c5676a8078fe583e46497018054831691841691909117905560408301517f9e7b61f58c47dc699ac88507c4f5bb9f121c03808c5676a8078fe583e46497028054831691841691909117905560608301517f9e7b61f58c47dc699ac88507c4f5bb9f121c03808c5676a8078fe583e46497038054909216921691909117905550565b6001600160a01b038216620002235760405162461bcd60e51b815260206004820152602f60248201527f566572696669636174696f6e5365727669636556323a20696e76616c6964206960448201526e3232b73a34ba3c9036b0b730b3b2b960891b60648201526084015b60405180910390fd5b6001600160a01b038116620002935760405162461bcd60e51b815260206004820152602f60248201527f566572696669636174696f6e5365727669636556323a20696e76616c6964207260448201526e657075746174696f6e2073636f726560881b60648201526084016200021a565b5f80546001600160a01b039384166001600160a01b031991821617909155600180549290931691811691909117909155600280549091163317905562000326565b80516001600160a01b0381168114620002eb575f80fd5b919050565b5f806040838503121562000302575f80fd5b6200030d83620002d4565b91506200031d60208401620002d4565b90509250929050565b611a1680620003345f395ff3fe608060405234801561000f575f80fd5b50600436106100f9575f3560e01c806375ba7cdd11610093578063d6e8dc8911610063578063d6e8dc8914610331578063da1f12ab1461040c578063e600fc0014610414578063fcd4b8681461043c575f80fd5b806375ba7cdd146102d657806377ec974d146102e95780638da5cb5b146102fc578063b2cb24f51461030f575f80fd5b806358671730116100ce578063586717301461027b57806358c83c6c1461028457806360a7fc1f1461029957806375495e90146102c4575f80fd5b8062068fe8146100fd578062ca3d291461012f578063052f8566146102365780634a17521014610259575b5f80fd5b61011c61010b366004611491565b60056020525f908152604090205481565b6040519081526020015b60405180910390f35b61022961013d3660046114aa565b60408051610120810182525f80825260208201819052918101829052606081018290526080810182905260a0810182905260c0810182905260e08101829052610100810191909152505f9081526003602081815260409283902083516101208101855281546001600160a01b038116825263ffffffff600160a01b8204811694830194909452600160c01b8104841695820195909552600160e01b909404821660608501526001810154918216608085015260ff64010000000083048116151560a0860152600160281b909204909116151560c0840152600281015460e0840152015461010082015290565b60405161012691906114c1565b610249610244366004611570565b61044f565b6040519015158152602001610126565b6102496102673660046114aa565b60076020525f908152604090205460ff1681565b61011c60045481565b610297610292366004611491565b6104cb565b005b6001546102ac906001600160a01b031681565b6040516001600160a01b039091168152602001610126565b5f546102ac906001600160a01b031681565b61011c6102e43660046115ab565b610546565b6102976102f7366004611699565b610a67565b6002546102ac906001600160a01b031681565b61024961031d3660046114aa565b5f9081526007602052604090205460ff1690565b6103ad61033f3660046114aa565b600360208190525f918252604090912080546001820154600283015492909301546001600160a01b0382169363ffffffff600160a01b8404811694600160c01b8504821694600160e01b90048216939183169260ff6401000000008204811693600160281b90920416919089565b604080516001600160a01b03909a168a5263ffffffff98891660208b0152968816968901969096529386166060880152949091166080860152151560a085015291151560c084015260e083019190915261010082015261012001610126565b61271161011c565b61011c610422366004611491565b6001600160a01b03165f9081526005602052604090205490565b61029761044a366004611491565b610e3c565b60015460405163343ccacd60e21b81526001600160a01b038481166004830152602482018490525f92169063d0f32b3490604401602060405180830381865afa15801561049e573d5f803e3d5ffd5b505050506040513d601f19601f820116820180604052508101906104c29190611710565b90505b92915050565b6002546001600160a01b031633146104fe5760405162461bcd60e51b81526004016104f590611729565b60405180910390fd5b6001600160a01b0381166105245760405162461bcd60e51b81526004016104f590611777565b600180546001600160a01b0319166001600160a01b0392909216919091179055565b5f80546040516350681a9360e11b81523360048201526001600160a01b039091169063a0d0352690602401602060405180830381865afa15801561058c573d5f803e3d5ffd5b505050506040513d601f19601f820116820180604052508101906105b09190611710565b61060f5760405162461bcd60e51b815260206004820152602a60248201527f566572696669636174696f6e5365727669636556323a2075736572206e6f74206044820152691c9959da5cdd195c995960b21b60648201526084016104f5565b60048054905f61061e836117d1565b9091555060408051610120810182523380825263ffffffff808a1660208085019182528a83168587019081528a8416606087019081528a8516608088019081525f60a0890181815260c08a018281524260e08c019081526101008c018481528e85526003988990528d85209c518d549a51985197518c16600160e01b026001600160e01b03988d16600160c01b02989098166001600160c01b03998d16600160a01b026001600160c01b0319909c166001600160a01b03928316179b909b179890981699909917959095178b55925160018b018054925194511515600160281b0265ff0000000000199515156401000000000264ffffffffff1990941692909a1691909117919091179290921696909617905551600287015591519401939093558054935163041bf78d60e51b815294955093929091169163837ef1a091610777916004016001600160a01b0391909116815260200190565b602060405180830381865afa158015610792573d5f803e3d5ffd5b505050506040513d601f19601f820116820180604052508101906107b691906117e9565b5f8054604051632b495c8960e01b815233600482015292935090916001600160a01b0390911690632b495c8990602401602060405180830381865afa158015610801573d5f803e3d5ffd5b505050506040513d601f19601f8201168201806040525081019061082591906117e9565b5f805460405163058a4c2960e41b815233600482015292935090916001600160a01b03909116906358a4c29090602401602060405180830381865afa158015610870573d5f803e3d5ffd5b505050506040513d601f19601f8201168201806040525081019061089491906117e9565b5f80546040516307b5c22960e51b815233600482015292935090916001600160a01b039091169063f6b8452090602401602060405180830381865afa1580156108df573d5f803e3d5ffd5b505050506040513d601f19601f8201168201806040525081019061090391906117e9565b90505f610918856109138c610ead565b610ebf565b90505f610928856109138c610ead565b90505f610938856109138c610ead565b90505f610948856109138c610ead565b60408051600480825260a082019092529192505f91906020820160808036833701905050905084815f8151811061098157610981611800565b602090810291909101015283816001815181106109a0576109a0611800565b602090810291909101015282816002815181106109bf576109bf611800565b602090810291909101015281816003815181106109de576109de611800565b60209081029190910101525f6109fb826377ec974d60e01b610eed565b5f8c815260036020818152604080842090920184905583835260068152918190208e90555182815291925033918d917fdeb7003ffed8f3df9845e492fd4d38d5871c0b5215d4ce4d14d144e600f7e87a910160405180910390a350505050505050505050949350505050565b610a72838383610ef9565b5f805f8085806020019051810190610a8a9190611814565b5f8b815260066020908152604080832054808452600390925290912080549599509397509195509350916001600160a01b0316610b155760405162461bcd60e51b815260206004820152602360248201527f566572696669636174696f6e5365727669636556323a20696e76616c6964207460448201526261736b60e81b60648201526084016104f5565b6001810154640100000000900460ff1615610b885760405162461bcd60e51b815260206004820152602d60248201527f566572696669636174696f6e5365727669636556323a207461736b20616c726560448201526c18591e4818dbdb5c1b195d1959609a1b60648201526084016104f5565b5f868015610b935750855b8015610b9c5750845b8015610ba55750835b60018381018054831515600160281b0265ffff0000000019909116176401000000001790555f8581526007602052604090819020805460ff1916909217909155835490519192506001600160a01b03169084907f10f21647cf3227d5f824a788d1f9e9cd0753f0bdd61a6ec6165abad2a54f4fb290610c2990851515815260200190565b60405180910390a38015610e3057600154825460408051631070a51360e01b815290516001600160a01b039384169363d119db4c9316918491631070a513916004808201926020929091908290030181865afa158015610c8b573d5f803e3d5ffd5b505050506040513d601f19601f82011682018060405250810190610caf91906117e9565b6040516001600160e01b031960e085901b1681526001600160a01b03909216600483015260248201526044015f604051808303815f87803b158015610cf2575f80fd5b505af1158015610d04573d5f803e3d5ffd5b5050600154845460405163d14d5e5360e01b81526001600160a01b0391821660048201529116925063d14d5e5391506024015f604051808303815f87803b158015610d4d575f80fd5b505af1158015610d5f573d5f803e3d5ffd5b505083546001600160a01b03165f908152600560205260408120805493509150610d88836117d1565b9091555050815460015460408051631070a51360e01b815290516001600160a01b03938416937f99a3d10b89b07674fcd46bd1678cb120c3c0e2bdd33ab6c1ed9907208907a321931691631070a5139160048083019260209291908290030181865afa158015610dfa573d5f803e3d5ffd5b505050506040513d601f19601f82011682018060405250810190610e1e91906117e9565b60405190815260200160405180910390a25b50505050505050505050565b6002546001600160a01b03163314610e665760405162461bcd60e51b81526004016104f590611729565b6001600160a01b038116610e8c5760405162461bcd60e51b81526004016104f590611777565b5f80546001600160a01b0319166001600160a01b0392909216919091179055565b5f6104c58263ffffffff166004610f62565b5f82610ed157610ece5f610ead565b92505b81610ee257610edf5f610ead565b91505b6104c283835f61100c565b5f6104c283835f6110c1565b5f610f03846111dc565b90505f610f118285856112ad565b905080610f315760405163cf6c44e960e01b815260040160405180910390fd5b60405185907f1af0453083661051f6e56e5c070792320652e612154bf9af8637bb1e7655b99d905f90a25050505050565b7f9e7b61f58c47dc699ac88507c4f5bb9f121c03808c5676a8078fe583e464970154604051639cd07acb60e01b81525f915f805160206119c1833981519152916001600160a01b0390911690639cd07acb90610fc4908790879060040161185a565b6020604051808303815f875af1158015610fe0573d5f803e3d5ffd5b505050506040513d601f19601f8201168201806040525081019061100491906117e9565b949350505050565b5f80821561101f5750600160f81b611022565b505f5b5f5f805160206119c18339815191526001810154604051631391547f60e01b815260048101899052602481018890526001600160f81b0319851660448201529192506001600160a01b031690631391547f906064016020604051808303815f875af1158015611093573d5f803e3d5ffd5b505050506040513d601f19601f820116820180604052508101906110b791906117e9565b9695505050505050565b7f878245876662ba28a480c5ea71726db859fb50222b0a3d7cbbc21cfa336faf0080545f805160206119c18339815191528054604051637d6e912360e11b81529293926001600160a01b039091169063fadd2246906111249089906004016118c4565b5f604051808303815f87803b15801561113b575f80fd5b505af115801561114d573d5f803e3d5ffd5b5050506002820154604051633263b83b60e01b81526001600160a01b039091169150633263b83b9086906111899087908b908b906004016118d6565b5f604051808303818588803b1580156111a0575f80fd5b505af11580156111b2573d5f803e3d5ffd5b50505050506111c18387611386565b8154825f6111ce836117d1565b919050555050509392505050565b5f8181527f878245876662ba28a480c5ea71726db859fb50222b0a3d7cbbc21cfa336faf0160205260408120546060917f878245876662ba28a480c5ea71726db859fb50222b0a3d7cbbc21cfa336faf0091900361124d5760405163d66ca67560e01b815260040160405180910390fd5b5f838152600182016020908152604091829020805483518184028101840190945280845290918301828280156112a057602002820191905f5260205f20905b81548152602001906001019080831161128c575b5050505050915050919050565b5f80835160206112bd9190611907565b6112c8906020611907565b90505f84826040516020016112de92919061193c565b60405160208183030381529060405290505f6113045f805160206119c183398151915290565b60038101546040516378542ead60e01b81529192506001600160a01b0316906378542ead9061133b908a9086908a90600401611988565b6020604051808303815f875af1158015611357573d5f803e3d5ffd5b505050506040513d601f19601f8201168201806040525081019061137b9190611710565b979650505050505050565b5f8281527f878245876662ba28a480c5ea71726db859fb50222b0a3d7cbbc21cfa336faf0160205260409020547f878245876662ba28a480c5ea71726db859fb50222b0a3d7cbbc21cfa336faf0090156113f357604051633f06d22b60e01b815260040160405180910390fd5b5f8381526001820160209081526040909120835161141392850190611419565b50505050565b828054828255905f5260205f20908101928215611452579160200282015b82811115611452578251825591602001919060010190611437565b5061145e929150611462565b5090565b5b8082111561145e575f8155600101611463565b80356001600160a01b038116811461148c575f80fd5b919050565b5f602082840312156114a1575f80fd5b6104c282611476565b5f602082840312156114ba575f80fd5b5035919050565b81516001600160a01b0316815260208083015163ffffffff16908201526040808301516101208301916114fb9084018263ffffffff169052565b506060830151611513606084018263ffffffff169052565b50608083015161152b608084018263ffffffff169052565b5060a083015161153f60a084018215159052565b5060c083015161155360c084018215159052565b5060e083015160e083015261010080840151818401525092915050565b5f8060408385031215611581575f80fd5b61158a83611476565b946020939093013593505050565b803563ffffffff8116811461148c575f80fd5b5f805f80608085870312156115be575f80fd5b6115c785611598565b93506115d560208601611598565b92506115e360408601611598565b91506115f160608601611598565b905092959194509250565b634e487b7160e01b5f52604160045260245ffd5b5f82601f83011261161f575f80fd5b813567ffffffffffffffff8082111561163a5761163a6115fc565b604051601f8301601f19908116603f01168101908282118183101715611662576116626115fc565b8160405283815286602085880101111561167a575f80fd5b836020870160208301375f602085830101528094505050505092915050565b5f805f606084860312156116ab575f80fd5b83359250602084013567ffffffffffffffff808211156116c9575f80fd5b6116d587838801611610565b935060408601359150808211156116ea575f80fd5b506116f786828701611610565b9150509250925092565b8051801515811461148c575f80fd5b5f60208284031215611720575f80fd5b6104c282611701565b6020808252602e908201527f566572696669636174696f6e5365727669636556323a2063616c6c657220697360408201526d103737ba103a34329037bbb732b960911b606082015260800190565b60208082526026908201527f566572696669636174696f6e5365727669636556323a20696e76616c6964206160408201526564647265737360d01b606082015260800190565b634e487b7160e01b5f52601160045260245ffd5b5f600182016117e2576117e26117bd565b5060010190565b5f602082840312156117f9575f80fd5b5051919050565b634e487b7160e01b5f52603260045260245ffd5b5f805f8060808587031215611827575f80fd5b61183085611701565b935061183e60208601611701565b925061184c60408601611701565b91506115f160608601611701565b828152604081016054831061187d57634e487b7160e01b5f52602160045260245ffd5b8260208301529392505050565b5f815180845260208085019450602084015f5b838110156118b95781518752958201959082019060010161189d565b509495945050505050565b602081525f6104c2602083018461188a565b838152606060208201525f6118ee606083018561188a565b905063ffffffff60e01b83166040830152949350505050565b808201808211156104c5576104c56117bd565b5f5b8381101561193457818101518382015260200161191c565b50505f910152565b5f835161194d81846020880161191a565b9190910191825250602001919050565b5f815180845261197481602086016020860161191a565b601f01601f19169290920160200192915050565b606081525f61199a606083018661188a565b82810360208401526119ac818661195d565b905082810360408401526110b7818561195d56fe9e7b61f58c47dc699ac88507c4f5bb9f121c03808c5676a8078fe583e4649700a264697066735822122049d999cf1a98310a95fba9227ae27bc5e70cf72cb07a976851549e1e0dbe32cc64736f6c63430008180033",
  "linkReferences": {},
  "deployedLinkReferences": {}
}