{
  "_format": "hh-sol-artifact-1",
  "contractName": "VerificationService",
  "sourceName": "contracts/VerificationService.sol",
  "abi": [
    {
      "inputs": [
        {
          "internalType": "address",
          "name": "_identityManager",
          "type": "address"
        },
        {
          "internalType": "address",
          "name": "_reputationScore",
          "type": "address"
        }
      ],
      "stateMutability": "nonpayable",
      "type": "constructor"
    },
    {
      "anonymous": false,
      "inputs": [
        {
          "indexed": true,
          "internalType": "address",
          "name": "user",
          "type": "address"
        },
        {
          "indexed": false,
          "internalType": "uint256",
          "name": "amount",
          "type": "uint256"
        }
      ],
      "name": "ReputationAwarded",
      "type": "event"
    },
    {
      "anonymous": false,
      "inputs": [
        {
          "indexed": true,
          "internalType": "uint256",
          "name": "taskId",
          "type": "uint256"
        },
        {
          "indexed": true,
          "internalType": "address",
          "name": "user",
          "type": "address"
        },
        {
          "indexed": false,
          "internalType": "bool",
          "name": "passed",
          "type": "bool"
        }
      ],
      "name": "VerificationCompleted",
      "type": "event"
    },
    {
      "anonymous": false,
      "inputs": [
        {
          "indexed": true,
          "internalType": "uint256",
          "name": "taskId",
          "type": "uint256"
        },
        {
          "indexed": true,
          "internalType": "address",
          "name": "user",
          "type": "address"
        }
      ],
      "name": "VerificationRequested",
      "type": "event"
    },
    {
      "inputs": [
        {
          "internalType": "uint256",
          "name": "taskId",
          "type": "uint256"
        },
        {
          "internalType": "bool",
          "name": "assetPassed",
          "type": "bool"
        },
        {
          "internalType": "bool",
          "name": "nftPassed",
          "type": "bool"
        },
        {
          "internalType": "bool",
          "name": "agePassed",
          "type": "bool"
        },
        {
          "internalType": "bool",
          "name": "txPassed",
          "type": "bool"
        }
      ],
      "name": "completeVerification",
      "outputs": [],
      "stateMutability": "nonpayable",
      "type": "function"
    },
    {
      "inputs": [
        {
          "internalType": "address",
          "name": "user",
          "type": "address"
        }
      ],
      "name": "getUserVerificationCount",
      "outputs": [
        {
          "internalType": "uint256",
          "name": "",
          "type": "uint256"
        }
      ],
      "stateMutability": "view",
      "type": "function"
    },
    {
      "inputs": [
        {
          "internalType": "uint256",
          "name": "taskId",
          "type": "uint256"
        }
      ],
      "name": "getVerificationTask",
      "outputs": [
        {
          "components": [
            {
              "internalType": "address",
              "name": "user",
              "type": "address"
            },
            {
              "internalType": "uint32",
              "name": "minAssetBalance",
              "type": "uint32"
            },
            {
              "internalType": "uint32",
              "name": "minNFTCount",
              "type": "uint32"
            },
            {
              "internalType": "uint32",
              "name": "minAccountAge",
              "type": "uint32"
            },
            {
              "internalType": "uint32",
              "name": "minTxCount",
              "type": "uint32"
            },
            {
              "internalType": "bool",
              "name": "completed",
              "type": "bool"
            },
            {
              "internalType": "bool",
              "name": "passed",
              "type": "bool"
            },
            {
              "internalType": "uint256",
              "name": "createdAt",
              "type": "uint256"
            }
          ],
          "internalType": "struct VerificationService.VerificationTask",
          "name": "",
          "type": "tuple"
        }
      ],
      "stateMutability": "view",
      "type": "function"
    },
    {
      "inputs": [],
      "name": "identityManager",
      "outputs": [
        {
          "internalType": "contract IdentityProofManager",
          "name": "",
          "type": "address"
        }
      ],
      "stateMutability": "view",
      "type": "function"
    },
    {
      "inputs": [
        {
          "internalType": "address",
          "name": "user",
          "type": "address"
        },
        {
          "internalType": "uint256",
          "name": "minScore",
          "type": "uint256"
        }
      ],
      "name": "meetsReputationRequirement",
      "outputs": [
        {
          "internalType": "bool",
          "name": "",
          "type": "bool"
        }
      ],
      "stateMutability": "view",
      "type": "function"
    },
    {
      "inputs": [],
      "name": "owner",
      "outputs": [
        {
          "internalType": "address",
          "name": "",
          "type": "address"
        }
      ],
      "stateMutability": "view",
      "type": "function"
    },
    {
      "inputs": [],
      "name": "reputationScore",
      "outputs": [
        {
          "internalType": "contract ReputationScore",
          "name": "",
          "type": "address"
        }
      ],
      "stateMutability": "view",
      "type": "function"
    },
    {
      "inputs": [
        {
          "internalType": "uint32",
          "name": "minAssetBalance",
          "type": "uint32"
        },
        {
          "internalType": "uint32",
          "name": "minNFTCount",
          "type": "uint32"
        },
        {
          "internalType": "uint32",
          "name": "minAccountAge",
          "type": "uint32"
        },
        {
          "internalType": "uint32",
          "name": "minTxCount",
          "type": "uint32"
        }
      ],
      "name": "requestVerification",
      "outputs": [
        {
          "internalType": "uint256",
          "name": "taskId",
          "type": "uint256"
        }
      ],
      "stateMutability": "nonpayable",
      "type": "function"
    },
    {
      "inputs": [
        {
          "internalType": "address",
          "name": "user",
          "type": "address"
        },
        {
          "internalType": "uint32",
          "name": "minBalance",
          "type": "uint32"
        }
      ],
      "name": "simpleVerifyAsset",
      "outputs": [
        {
          "internalType": "bool",
          "name": "",
          "type": "bool"
        }
      ],
      "stateMutability": "nonpayable",
      "type": "function"
    },
    {
      "inputs": [],
      "name": "taskCounter",
      "outputs": [
        {
          "internalType": "uint256",
          "name": "",
          "type": "uint256"
        }
      ],
      "stateMutability": "view",
      "type": "function"
    },
    {
      "inputs": [
        {
          "internalType": "address",
          "name": "newManager",
          "type": "address"
        }
      ],
      "name": "updateIdentityManager",
      "outputs": [],
      "stateMutability": "nonpayable",
      "type": "function"
    },
    {
      "inputs": [
        {
          "internalType": "address",
          "name": "newScore",
          "type": "address"
        }
      ],
      "name": "updateReputationScore",
      "outputs": [],
      "stateMutability": "nonpayable",
      "type": "function"
    },
    {
      "inputs": [
        {
          "internalType": "address",
          "name": "",
          "type": "address"
        }
      ],
      "name": "userVerificationCount",
      "outputs": [
        {
          "internalType": "uint256",
          "name": "",
          "type": "uint256"
        }
      ],
      "stateMutability": "view",
      "type": "function"
    },
    {
      "inputs": [
        {
          "internalType": "uint256",
          "name": "",
          "type": "uint256"
        }
      ],
      "name": "verificationTasks",
      "outputs": [
        {
          "internalType": "address",
          "name": "user",
          "type": "address"
        },
        {
          "internalType": "uint32",
          "name": "minAssetBalance",
          "type": "uint32"
        },
        {
          "internalType": "uint32",
          "name": "minNFTCount",
          "type": "uint32"
        },
        {
          "internalType": "uint32",
          "name": "minAccountAge",
          "type": "uint32"
        },
        {
          "internalType": "uint32",
          "name": "minTxCount",
          "type": "uint32"
        },
        {
          "internalType": "bool",
          "name": "completed",
          "type": "bool"
        },
        {
          "internalType": "bool",
          "name": "passed",
          "type": "bool"
        },
        {
          "internalType": "uint256",
          "name": "createdAt",
          "type": "uint256"
        }
      ],
      "stateMutability": "view",
      "type": "function"
    },
    {
      "inputs": [
        {
          "internalType": "address",
          "name": "user",
          "type": "address"
        },
        {
          "internalType": "uint32",
          "name": "minAge",
          "type": "uint32"
        }
      ],
      "name": "verifyAccountAge",
      "outputs": [
        {
          "internalType": "ebool",
          "name": "",
          "type": "bytes32"
        }
      ],
      "stateMutability": "nonpayable",
      "type": "function"
    },
    {
      "inputs": [
        {
          "internalType": "address",
          "name": "user",
          "type": "address"
        },
        {
          "internalType": "uint32",
          "name": "minBalance",
          "type": "uint32"
        }
      ],
      "name": "verifyAssetBalance",
      "outputs": [
        {
          "internalType": "ebool",
          "name": "",
          "type": "bytes32"
        }
      ],
      "stateMutability": "nonpayable",
      "type": "function"
    },
    {
      "inputs": [
        {
          "internalType": "address",
          "name": "user",
          "type": "address"
        },
        {
          "internalType": "uint32",
          "name": "minCount",
          "type": "uint32"
        }
      ],
      "name": "verifyNFTCount",
      "outputs": [
        {
          "internalType": "ebool",
          "name": "",
          "type": "bytes32"
        }
      ],
      "stateMutability": "nonpayable",
      "type": "function"
    },
    {
      "inputs": [
        {
          "internalType": "address",
          "name": "user",
          "type": "address"
        },
        {
          "internalType": "uint32",
          "name": "minTx",
          "type": "uint32"
        }
      ],
      "name": "verifyTxCount",
      "outputs": [
        {
          "internalType": "ebool",
          "name": "",
          "type": "bytes32"
        }
      ],
      "stateMutability": "nonpayable",
      "type": "function"
    }
  ],
  "bytecode": "0x608060405234801562000010575f80fd5b506040516200170038038062001700833981016040819052620000339162000170565b6001600160a01b038216620000a55760405162461bcd60e51b815260206004820152602d60248201527f566572696669636174696f6e536572766963653a20696e76616c69642069646560448201526c373a34ba3c9036b0b730b3b2b960991b60648201526084015b60405180910390fd5b6001600160a01b038116620001135760405162461bcd60e51b815260206004820152602d60248201527f566572696669636174696f6e536572766963653a20696e76616c69642072657060448201526c75746174696f6e2073636f726560981b60648201526084016200009c565b5f80546001600160a01b039384166001600160a01b0319918216179091556001805492909316918116919091179091556002805490911633179055620001a6565b80516001600160a01b03811681146200016b575f80fd5b919050565b5f806040838503121562000182575f80fd5b6200018d8362000154565b91506200019d6020840162000154565b90509250929050565b61154c80620001b45f395ff3fe608060405234801561000f575f80fd5b506004361061010f575f3560e01c806360a7fc1f1161009e578063b36279971161006e578063b36279971461032b578063d6e8dc891461033e578063e600fc0014610408578063fcd4b86814610430578063fed1551914610443575f80fd5b806360a7fc1f146102c857806375495e90146102f357806375ba7cdd146103055780638da5cb5b14610318575f80fd5b806336239b6b116100e457806336239b6b14610271578063586717301461028457806358c83c6c1461028d5780635e4adaea146102a2578063601a1cfe146102b5575f80fd5b8062068fe814610113578062ca3d2914610145578063052f85661461023b578063283f9d1a1461025e575b5f80fd5b6101326101213660046111d5565b60056020525f908152604090205481565b6040519081526020015b60405180910390f35b61022e6101533660046111ee565b60408051610100810182525f80825260208201819052918101829052606081018290526080810182905260a0810182905260c0810182905260e0810191909152505f9081526003602090815260409182902082516101008101845281546001600160a01b038116825263ffffffff600160a01b8204811694830194909452600160c01b8104841694820194909452600160e01b909304821660608401526001810154918216608084015260ff64010000000083048116151560a0850152600160281b909204909116151560c08301526002015460e082015290565b60405161013c9190611205565b61024e610249366004611287565b610456565b604051901515815260200161013c565b61013261026c3660046112c2565b6104d0565b61024e61027f3660046112c2565b6105ef565b61013260045481565b6102a061029b3660046111d5565b610757565b005b6101326102b03660046112c2565b6107c9565b6101326102c33660046112c2565b610883565b6001546102db906001600160a01b031681565b6040516001600160a01b03909116815260200161013c565b5f546102db906001600160a01b031681565b6101326103133660046112f3565b61093d565b6002546102db906001600160a01b031681565b6101326103393660046112c2565b610b1e565b6103b361034c3660046111ee565b60036020525f90815260409020805460018201546002909201546001600160a01b0382169263ffffffff600160a01b8404811693600160c01b8104821693600160e01b9091048216929182169160ff6401000000008204811692600160281b909204169088565b604080516001600160a01b03909916895263ffffffff97881660208a01529587169588019590955292851660608701529316608085015291151560a084015290151560c083015260e08201526101000161013c565b6101326104163660046111d5565b6001600160a01b03165f9081526005602052604090205490565b6102a061043e3660046111d5565b610bd8565b6102a0610451366004611354565b610c49565b60015460405163343ccacd60e21b81526001600160a01b038481166004830152602482018490525f92169063d0f32b3490604401602060405180830381865afa1580156104a5573d5f803e3d5ffd5b505050506040513d601f19601f820116820180604052508101906104c991906113b8565b9392505050565b5f80546040516350681a9360e11b81526001600160a01b0385811660048301529091169063a0d0352690602401602060405180830381865afa158015610518573d5f803e3d5ffd5b505050506040513d601f19601f8201168201806040525081019061053c91906113b8565b6105615760405162461bcd60e51b8152600401610558906113d3565b60405180910390fd5b5f805460405163041bf78d60e51b81526001600160a01b0386811660048301529091169063837ef1a0906024015b602060405180830381865afa1580156105aa573d5f803e3d5ffd5b505050506040513d601f19601f820116820180604052508101906105ce919061141b565b90505f6105da84610fef565b90506105e68282611007565b95945050505050565b6002545f906001600160a01b0316331461061b5760405162461bcd60e51b815260040161055890611432565b61062583836104d0565b5060015460408051631070a51360e01b815290516001600160a01b039092169163d119db4c9186918491631070a5139160048083019260209291908290030181865afa158015610677573d5f803e3d5ffd5b505050506040513d601f19601f8201168201806040525081019061069b919061141b565b6040516001600160e01b031960e085901b1681526001600160a01b03909216600483015260248201526044015f604051808303815f87803b1580156106de575f80fd5b505af11580156106f0573d5f803e3d5ffd5b505060015460405163d14d5e5360e01b81526001600160a01b038781166004830152909116925063d14d5e5391506024015f604051808303815f87803b158015610738575f80fd5b505af115801561074a573d5f803e3d5ffd5b5060019695505050505050565b6002546001600160a01b031633146107815760405162461bcd60e51b815260040161055890611432565b6001600160a01b0381166107a75760405162461bcd60e51b81526004016105589061147e565b600180546001600160a01b0319166001600160a01b0392909216919091179055565b5f80546040516350681a9360e11b81526001600160a01b0385811660048301529091169063a0d0352690602401602060405180830381865afa158015610811573d5f803e3d5ffd5b505050506040513d601f19601f8201168201806040525081019061083591906113b8565b6108515760405162461bcd60e51b8152600401610558906113d3565b5f805460405163058a4c2960e41b81526001600160a01b038681166004830152909116906358a4c2909060240161058f565b5f80546040516350681a9360e11b81526001600160a01b0385811660048301529091169063a0d0352690602401602060405180830381865afa1580156108cb573d5f803e3d5ffd5b505050506040513d601f19601f820116820180604052508101906108ef91906113b8565b61090b5760405162461bcd60e51b8152600401610558906113d3565b5f80546040516307b5c22960e51b81526001600160a01b0386811660048301529091169063f6b845209060240161058f565b5f80546040516350681a9360e11b81523360048201526001600160a01b039091169063a0d0352690602401602060405180830381865afa158015610983573d5f803e3d5ffd5b505050506040513d601f19601f820116820180604052508101906109a791906113b8565b6109c35760405162461bcd60e51b8152600401610558906113d3565b60048054905f6109d2836114c2565b9091555060408051610100810182523380825263ffffffff808a1660208085019182528a83168587019081528a8416606087019081528a8516608088019081525f60a0890181815260c08a018281524260e08c019081528d845260039097528b83209a518b549851965195518a16600160e01b026001600160e01b03968b16600160c01b02969096166001600160c01b03978b16600160a01b026001600160c01b0319909a166001600160a01b03929092169190911798909817959095169690961792909217885551600188018054955193511515600160281b0265ff0000000000199415156401000000000264ffffffffff199097169290971691909117949094179190911693909317909155516002909301929092559151929350909183917fa3cac7c72dca9bd0861f2c164c8f3b00e8a9db7c0539ea939c9db9bbda01afc691a3949350505050565b5f80546040516350681a9360e11b81526001600160a01b0385811660048301529091169063a0d0352690602401602060405180830381865afa158015610b66573d5f803e3d5ffd5b505050506040513d601f19601f82011682018060405250810190610b8a91906113b8565b610ba65760405162461bcd60e51b8152600401610558906113d3565b5f8054604051632b495c8960e01b81526001600160a01b03868116600483015290911690632b495c899060240161058f565b6002546001600160a01b03163314610c025760405162461bcd60e51b815260040161055890611432565b6001600160a01b038116610c285760405162461bcd60e51b81526004016105589061147e565b5f80546001600160a01b0319166001600160a01b0392909216919091179055565b6002546001600160a01b03163314610c735760405162461bcd60e51b815260040161055890611432565b5f8581526003602052604090206001810154640100000000900460ff1615610cf15760405162461bcd60e51b815260206004820152602b60248201527f566572696669636174696f6e536572766963653a207461736b20616c7265616460448201526a1e4818dbdb5c1b195d195960aa1b6064820152608401610558565b80546001600160a01b0316610d595760405162461bcd60e51b815260206004820152602860248201527f566572696669636174696f6e536572766963653a207461736b20646f6573206e6044820152671bdd08195e1a5cdd60c21b6064820152608401610558565b5f858015610d645750845b8015610d6d5750835b8015610d765750825b600183018054821515600160281b0265ffff00000000199091161764010000000017905582546040519192506001600160a01b03169088907f10f21647cf3227d5f824a788d1f9e9cd0753f0bdd61a6ec6165abad2a54f4fb290610ddf90851515815260200190565b60405180910390a38015610fe657600154825460408051631070a51360e01b815290516001600160a01b039384169363d119db4c9316918491631070a513916004808201926020929091908290030181865afa158015610e41573d5f803e3d5ffd5b505050506040513d601f19601f82011682018060405250810190610e65919061141b565b6040516001600160e01b031960e085901b1681526001600160a01b03909216600483015260248201526044015f604051808303815f87803b158015610ea8575f80fd5b505af1158015610eba573d5f803e3d5ffd5b5050600154845460405163d14d5e5360e01b81526001600160a01b0391821660048201529116925063d14d5e5391506024015f604051808303815f87803b158015610f03575f80fd5b505af1158015610f15573d5f803e3d5ffd5b505083546001600160a01b03165f908152600560205260408120805493509150610f3e836114c2565b9091555050815460015460408051631070a51360e01b815290516001600160a01b03938416937f99a3d10b89b07674fcd46bd1678cb120c3c0e2bdd33ab6c1ed9907208907a321931691631070a5139160048083019260209291908290030181865afa158015610fb0573d5f803e3d5ffd5b505050506040513d601f19601f82011682018060405250810190610fd4919061141b565b60405190815260200160405180910390a25b50505050505050565b5f6110018263ffffffff166004611035565b92915050565b5f82611019576110165f610fef565b92505b8161102a576110275f610fef565b91505b6104c983835f6110f2565b7f9e7b61f58c47dc699ac88507c4f5bb9f121c03808c5676a8078fe583e464970154604051639cd07acb60e01b81525f917f9e7b61f58c47dc699ac88507c4f5bb9f121c03808c5676a8078fe583e4649700916001600160a01b0390911690639cd07acb906110aa90879087906004016114e6565b6020604051808303815f875af11580156110c6573d5f803e3d5ffd5b505050506040513d601f19601f820116820180604052508101906110ea919061141b565b949350505050565b5f8082156111055750600160f81b611108565b505f5b5f7f9e7b61f58c47dc699ac88507c4f5bb9f121c03808c5676a8078fe583e46497006001810154604051631391547f60e01b815260048101899052602481018890526001600160f81b0319851660448201529192506001600160a01b031690631391547f906064016020604051808303815f875af115801561118c573d5f803e3d5ffd5b505050506040513d601f19601f820116820180604052508101906111b0919061141b565b9695505050505050565b80356001600160a01b03811681146111d0575f80fd5b919050565b5f602082840312156111e5575f80fd5b6104c9826111ba565b5f602082840312156111fe575f80fd5b5035919050565b5f6101008201905060018060a01b038351168252602083015163ffffffff8082166020850152806040860151166040850152806060860151166060850152806080860151166080850152505060a083015161126460a084018215159052565b5060c083015161127860c084018215159052565b5060e092830151919092015290565b5f8060408385031215611298575f80fd5b6112a1836111ba565b946020939093013593505050565b803563ffffffff811681146111d0575f80fd5b5f80604083850312156112d3575f80fd5b6112dc836111ba565b91506112ea602084016112af565b90509250929050565b5f805f8060808587031215611306575f80fd5b61130f856112af565b935061131d602086016112af565b925061132b604086016112af565b9150611339606086016112af565b905092959194509250565b8015158114611351575f80fd5b50565b5f805f805f60a08688031215611368575f80fd5b85359450602086013561137a81611344565b9350604086013561138a81611344565b9250606086013561139a81611344565b915060808601356113aa81611344565b809150509295509295909350565b5f602082840312156113c8575f80fd5b81516104c981611344565b60208082526028908201527f566572696669636174696f6e536572766963653a2075736572206e6f7420726560408201526719da5cdd195c995960c21b606082015260800190565b5f6020828403121561142b575f80fd5b5051919050565b6020808252602c908201527f566572696669636174696f6e536572766963653a2063616c6c6572206973206e60408201526b37ba103a34329037bbb732b960a11b606082015260800190565b60208082526024908201527f566572696669636174696f6e536572766963653a20696e76616c6964206164646040820152637265737360e01b606082015260800190565b5f600182016114df57634e487b7160e01b5f52601160045260245ffd5b5060010190565b828152604081016054831061150957634e487b7160e01b5f52602160045260245ffd5b826020830152939250505056fea26469706673582212200249e38e5103a934c2e8d9a7823fa9ec4bdfea957963ac8c890f739e5734ce1964736f6c63430008180033",
  "linkReferences": {},
  "deployedLinkReferences": {}
}